C51 COMPILER V9.52.0.0   ALLLED                                                            09/20/2014 19:43:53 PAGE 1   


C51 COMPILER V9.52.0.0, COMPILATION OF MODULE ALLLED
OBJECT MODULE PLACED IN ..\OUTPUT\allled.obj
COMPILER INVOKED BY: d:\Keil\C51\BIN\C51.EXE ..\HARDWARE\led\allled.c LARGE BROWSE INCDIR(..\SYSTEM\BSP;..\SYSTEM\CFUN;.
                    -.\SYSTEM\delay;..\SYSTEM\uart;..\HARDWARE\led) DEFINE(MAIN_Fosc=22118400) DEBUG OBJECTEXTEND PRINT(..\LIST\allled.lst) O
                    -BJECT(..\OUTPUT\allled.obj)

line level    source

   1          #include "allled.h"
   2          #include "delay.h"
   3          #include "STC15Fxxxx.H"
   4          
   5          
   6          
   7          void LED_Circle_Do(void)
   8          {
   9   1              int idata i=0;
  10   1              
  11   1              for(i=0;i<Circle_Do_Time;i++)
  12   1              {       
  13   2         _549_CS=0;
  14   2         delay_ns(10000);
  15   2         _549_CS=1;
  16   2         delay_ns(10000);  
  17   2      
  18   2               _5615_CS=0;
  19   2         delay_ns(10000);
  20   2         _5615_CS=1;  
  21   2         delay_ns(10000);     
  22   2      
  23   2         SMG_LC=0;
  24   2         delay_ns(10000);
  25   2         SMG_LC=1;
  26   2         delay_ns(10000);
  27   2      
  28   2         SMG_S1=0;
  29   2         delay_ns(10000);
  30   2         SMG_S1=1;
  31   2         delay_ns(10000);
  32   2        
  33   2         SMG_S2=0;
  34   2         delay_ns(10000);
  35   2         SMG_S2=1;
  36   2         delay_ns(10000);
  37   2      
  38   2         SMG_S3=0;
  39   2               delay_ns(10000);
  40   2               SMG_S3=1;
  41   2               delay_ns(10000);
  42   2               
  43   2               SMG_S4=0;
  44   2               delay_ns(10000);
  45   2               SMG_S4=1;
  46   2               
  47   2               _161_CS=0;
  48   2               delay_ns(10000);
  49   2               _161_CS=1;
  50   2               delay_ns(10000);
  51   2               
  52   2               RF_CE=0;
  53   2               delay_ns(10000);
C51 COMPILER V9.52.0.0   ALLLED                                                            09/20/2014 19:43:53 PAGE 2   

  54   2               RF_CE=1;
  55   2               delay_ns(10000); 
  56   2               
  57   2               RF_CS=0;
  58   2               delay_ns(10000);
  59   2               RF_CS=1;
  60   2               delay_ns(10000);
  61   2               
  62   2               RF_INT=0;
  63   2               delay_ns(10000);
  64   2               RF_INT=1;
  65   2               delay_ns(10000);
  66   2               
  67   2               NET_CS=0;
  68   2               delay_ns(10000);
  69   2               NET_CS=1;
  70   2               delay_ns(10000);
  71   2               
  72   2               NET_INT=0;
  73   2               delay_ns(10000);
  74   2               NET_INT=1;
  75   2               delay_ns(10000);
  76   2               
  77   2               TC_CS=0;
  78   2               delay_ns(10000);
  79   2               TC_CS=1;
  80   2               delay_ns(10000);
  81   2               
  82   2               TC_INT=0;
  83   2               delay_ns(10000);
  84   2               TC_INT=1;
  85   2               delay_ns(10000);
  86   2               
  87   2               MP3_XDCS=0;
  88   2               delay_ns(10000);
  89   2               MP3_XDCS=1;
  90   2               delay_ns(10000);
  91   2               
  92   2               MP3_XCS=0;
  93   2               delay_ns(10000);
  94   2               MP3_XCS=1;
  95   2               delay_ns(10000);
  96   2               
  97   2               CM_WEN=0;
  98   2               delay_ns(10000);
  99   2               CM_WEN=1;
 100   2               delay_ns(10000);
 101   2               
 102   2               CM_RRST=0;
 103   2               delay_ns(10000);
 104   2               CM_RRST=1;
 105   2               delay_ns(10000);
 106   2               
 107   2               CM_OE=0;
 108   2               delay_ns(10000);
 109   2               CM_OE=1;
 110   2               delay_ns(10000);
 111   2               
 112   2               TFT_RS=0;
 113   2               delay_ns(10000);
 114   2               TFT_RS=1;
 115   2               delay_ns(10000);
C51 COMPILER V9.52.0.0   ALLLED                                                            09/20/2014 19:43:53 PAGE 3   

 116   2               
 117   2               TFT_WR=0;
 118   2               delay_ns(10000);
 119   2               TFT_WR=1;
 120   2               delay_ns(10000);
 121   2               
 122   2               SD2_CS=0;
 123   2               TFT_RD=0;
 124   2               delay_ns(10000);
 125   2               TFT_RD=1;
 126   2               delay_ns(10000);
 127   2               SD2_CS=1;
 128   2               
 129   2               TFT_CS=0;
 130   2               delay_ns(10000);
 131   2               TFT_CS=1;
 132   2               delay_ns(10000);
 133   2               
 134   2               ALL_RST=0;
 135   2               delay_ns(10000);
 136   2               ALL_RST=1;
 137   2               delay_ns(10000);
 138   2               
 139   2               CM_VSYNC=0;
 140   2               delay_ns(10000);
 141   2               CM_VSYNC=1;
 142   2               delay_ns(10000);
 143   2               
 144   2               SD1_CS=0;
 145   2               delay_ns(10000);
 146   2               SD1_CS=1;
 147   2               delay_ns(10000);
 148   2               
 149   2               SD2_CS=0;
 150   2               delay_ns(10000);
 151   2               SD2_CS=1;
 152   2               delay_ns(10000); 
 153   2              } 
 154   1      }
 155          


MODULE INFORMATION:   STATIC OVERLAYABLE
   CODE SIZE        =    537    ----
   CONSTANT SIZE    =   ----    ----
   XDATA SIZE       =   ----    ----
   PDATA SIZE       =   ----    ----
   DATA SIZE        =   ----    ----
   IDATA SIZE       =   ----       2
   BIT SIZE         =   ----    ----
END OF MODULE INFORMATION.


C51 COMPILATION COMPLETE.  0 WARNING(S),  0 ERROR(S)
