BL51 BANKED LINKER/LOCATER V6.22                                                        09/20/2014  19:47:53  PAGE 1


BL51 BANKED LINKER/LOCATER V6.22, INVOKED BY:
D:\KEIL\C51\BIN\BL51.EXE ..\OUTPUT\main.obj, ..\OUTPUT\myfun.obj, ..\OUTPUT\uart.obj, ..\OUTPUT\bsp.obj, ..\OUTPUT\delay
>> .obj, ..\OUTPUT\allled.obj TO ..\OUTPUT\test PRINT (..\LIST\test.m51) RAMSIZE (256)


MEMORY MODEL: LARGE


INPUT MODULES INCLUDED:
  ..\OUTPUT\main.obj (MAIN)
  ..\OUTPUT\myfun.obj (MYFUN)
  ..\OUTPUT\uart.obj (UART)
  ..\OUTPUT\bsp.obj (BSP)
  ..\OUTPUT\delay.obj (DELAY)
  ..\OUTPUT\allled.obj (ALLLED)
  D:\KEIL\C51\LIB\C51L.LIB (?C_STARTUP)
  D:\KEIL\C51\LIB\C51L.LIB (?C?COPY)
  D:\KEIL\C51\LIB\C51L.LIB (?C?CLDOPTR)
  D:\KEIL\C51\LIB\C51L.LIB (?C?CSTOPTR)
  D:\KEIL\C51\LIB\C51L.LIB (?C?LMUL)
  D:\KEIL\C51\LIB\C51L.LIB (?C?ULDIV)
  D:\KEIL\C51\LIB\C51L.LIB (?C?LSTXDATA)
  D:\KEIL\C51\LIB\C51L.LIB (?C?LSTKXDATA)
  D:\KEIL\C51\LIB\C51L.LIB (STRLEN)
  D:\KEIL\C51\LIB\C51L.LIB (?C?CLDPTR)


LINK MAP OF MODULE:  ..\OUTPUT\test (MAIN)


            TYPE    BASE      LENGTH    RELOCATION   SEGMENT NAME
            -----------------------------------------------------

            * * * * * * *   D A T A   M E M O R Y   * * * * * * *
            REG     0000H     0008H     ABSOLUTE     "REG BANK 0"
            IDATA   0008H     0002H     UNIT         _IDATA_GROUP_
            IDATA   000AH     0001H     UNIT         ?STACK

            * * * * * * *  X D A T A   M E M O R Y  * * * * * * *
            XDATA   0000H     001DH     UNIT         ?XD?_U32TOSTR?MYFUN
            XDATA   001DH     0018H     UNIT         ?XD?_UART1_PUT_NUMBER?UART
            XDATA   0035H     000CH     UNIT         ?XD?_STRTOU32?MYFUN
            XDATA   0041H     0005H     UNIT         ?XD?_UART1_PUT_STRING?UART
            XDATA   0046H     0004H     UNIT         ?XD?_UART1_PUT_INF?UART
            XDATA   004AH     0002H     UNIT         _XDATA_GROUP_

            * * * * * * *   C O D E   M E M O R Y   * * * * * * *
            CODE    0000H     0003H     ABSOLUTE     
            CODE    0003H     02B8H     UNIT         ?C?LIB_CODE
            CODE    02BBH     0219H     UNIT         ?PR?LED_CIRCLE_DO?ALLLED
            CODE    04D4H     0110H     UNIT         ?PR?_U32TOSTR?MYFUN
            CODE    05E4H     00D6H     UNIT         ?PR?_STRTOU32?MYFUN
            CODE    06BAH     006EH     UNIT         ?PR?_UART1_PUT_STRING?UART
            CODE    0728H     0039H     UNIT         ?PR?_UART1_PUT_NUMBER?UART
            CODE    0761H     0023H     UNIT         ?PR?_UART1_PUT_INF?UART
            CODE    0784H     0022H     UNIT         ?PR?UART1_INIT?UART
            CODE    07A6H     0020H     UNIT         ?PR?_DELAY_MS?DELAY
            CODE    07C6H     001FH     UNIT         ?PR?ZNX_BSP_INIT?BSP
BL51 BANKED LINKER/LOCATER V6.22                                                      09/20/2014  19:47:53  PAGE 2


            CODE    07E5H     0016H     UNIT         ?CO?UART
            CODE    07FBH     0015H     UNIT         ?PR?_STRLEN?STRLEN
            CODE    0810H     0014H     UNIT         ?CO?MYFUN
            CODE    0824H     000FH     UNIT         ?PR?MAIN?MAIN
            CODE    0833H     000CH     UNIT         ?C_C51STARTUP
            CODE    083FH     000BH     UNIT         ?PR?_DELAY_NS?DELAY
            CODE    084AH     000AH     UNIT         ?PR?_UART1_PUT_BYTE?UART
            CODE    0854H     000AH     UNIT         ?PR?UART1_PUT_ENTER?UART



OVERLAY MAP OF MODULE:   ..\OUTPUT\test (MAIN)


SEGMENT                              IDATA_GROUP         XDATA_GROUP
  +--> CALLED SEGMENT              START    LENGTH     START    LENGTH
----------------------------------------------------------------------
?C_C51STARTUP                      -----    -----      -----    -----
  +--> ?PR?MAIN?MAIN

?PR?MAIN?MAIN                      -----    -----      004AH    0002H
  +--> ?PR?ZNX_BSP_INIT?BSP
  +--> ?PR?LED_CIRCLE_DO?ALLLED

?PR?LED_CIRCLE_DO?ALLLED           0008H    0002H      -----    -----
  +--> ?PR?_DELAY_NS?DELAY



SYMBOL TABLE OF MODULE:  ..\OUTPUT\test (MAIN)

  VALUE           TYPE          NAME
  ----------------------------------

  -------         MODULE        MAIN
  C:0000H         SYMBOL        _ICE_DUMMY_
  D:0080H         PUBLIC        P0
  D:0090H         PUBLIC        P1
  D:00A0H         PUBLIC        P2
  D:00B0H         PUBLIC        P3
  D:00C0H         PUBLIC        P4
  D:00C8H         PUBLIC        P5
  D:00A8H         PUBLIC        IE
  D:00B8H         PUBLIC        IP
  D:00D8H         PUBLIC        CCON
  C:0824H         PUBLIC        main
  D:0098H         PUBLIC        SCON
  D:0088H         PUBLIC        TCON
  D:00F0H         PUBLIC        B
  D:00E0H         PUBLIC        ACC
  D:00D0H         PUBLIC        PSW
  -------         PROC          MAIN
  -------         DO            
  X:004AH         SYMBOL        i
  -------         ENDDO         
  C:0824H         LINE#         36
  C:0824H         LINE#         37
BL51 BANKED LINKER/LOCATER V6.22                                                      09/20/2014  19:47:53  PAGE 3


  C:0824H         LINE#         38
  C:082BH         LINE#         40
  C:082EH         LINE#         42
  C:082EH         LINE#         43
  C:082EH         LINE#         44
  C:0831H         LINE#         45
  -------         ENDPROC       MAIN
  -------         ENDMOD        MAIN

  -------         MODULE        MYFUN
  C:0000H         SYMBOL        _ICE_DUMMY_
  C:05E4H         PUBLIC        _strtou32
  C:04D4H         PUBLIC        _u32tostr
  C:0810H         SYMBOL        _?ix1000
  -------         PROC          _U32TOSTR
  X:0000H         SYMBOL        dat
  X:0004H         SYMBOL        str
  -------         DO            
  X:0007H         SYMBOL        temp
  X:001BH         SYMBOL        i
  X:001CH         SYMBOL        j
  -------         ENDDO         
  C:04D4H         LINE#         39
  C:04E5H         LINE#         40
  C:04E5H         LINE#         41
  C:04F8H         LINE#         42
  C:04FDH         LINE#         43
  C:04FFH         LINE#         45
  C:0513H         LINE#         46
  C:0513H         LINE#         47
  C:0536H         LINE#         48
  C:053CH         LINE#         49
  C:0559H         LINE#         50
  C:055BH         LINE#         51
  C:0561H         LINE#         52
  C:0574H         LINE#         53
  C:0574H         LINE#         54
  C:05A2H         LINE#         55
  C:05AAH         LINE#         56
  C:05B0H         LINE#         57
  C:05B0H         LINE#         58
  C:05CCH         LINE#         59
  C:05CCH         LINE#         60
  -------         ENDPROC       _U32TOSTR
  -------         PROC          _STRTOU32
  X:0035H         SYMBOL        str
  -------         DO            
  X:0038H         SYMBOL        temp
  X:003CH         SYMBOL        fact
  D:0007H         SYMBOL        len
  X:0040H         SYMBOL        i
  -------         ENDDO         
  C:05E4H         LINE#         70
  C:05EFH         LINE#         71
  C:05EFH         LINE#         72
  C:05F7H         LINE#         73
  C:0601H         LINE#         74
BL51 BANKED LINKER/LOCATER V6.22                                                      09/20/2014  19:47:53  PAGE 4


  C:0604H         LINE#         77
  C:0615H         LINE#         78
  C:0615H         LINE#         79
  C:0685H         LINE#         80
  C:06A2H         LINE#         81
  C:06ABH         LINE#         83
  C:06B9H         LINE#         84
  -------         ENDPROC       _STRTOU32
  -------         ENDMOD        MYFUN

  -------         MODULE        UART
  C:0000H         SYMBOL        _ICE_DUMMY_
  D:0080H         PUBLIC        P0
  D:0090H         PUBLIC        P1
  D:00A0H         PUBLIC        P2
  D:00B0H         PUBLIC        P3
  D:00C0H         PUBLIC        P4
  D:00C8H         PUBLIC        P5
  B:00A8H.7       PUBLIC        EA
  C:0784H         PUBLIC        uart1_init
  D:00A8H         PUBLIC        IE
  C:0728H         PUBLIC        _uart1_put_number
  D:00B8H         PUBLIC        IP
  B:0098H.1       PUBLIC        TI
  D:00D8H         PUBLIC        CCON
  C:06BAH         PUBLIC        _uart1_put_string
  C:0854H         PUBLIC        uart1_put_enter
  D:0099H         PUBLIC        SBUF
  D:0087H         PUBLIC        PCON
  D:0098H         PUBLIC        SCON
  D:0089H         PUBLIC        TMOD
  D:0088H         PUBLIC        TCON
  D:00F0H         PUBLIC        B
  D:008EH         PUBLIC        AUXR
  C:084AH         PUBLIC        _uart1_put_byte
  C:07E7H         SYMBOL        _?ix1000
  D:00E0H         PUBLIC        ACC
  C:0761H         PUBLIC        _uart1_put_inf
  B:00A8H.3       PUBLIC        ET1
  D:008DH         PUBLIC        TH1
  D:008BH         PUBLIC        TL1
  B:0088H.6       PUBLIC        TR1
  D:00A2H         PUBLIC        AUXR1
  D:00D0H         PUBLIC        PSW
  -------         PROC          UART1_INIT
  C:0784H         LINE#         44
  C:0784H         LINE#         45
  C:0784H         LINE#         46
  C:0787H         LINE#         48
  C:078AH         LINE#         49
  C:078DH         LINE#         50
  C:0790H         LINE#         51
  C:0793H         LINE#         52
  C:0796H         LINE#         53
  C:0799H         LINE#         54
  C:079CH         LINE#         55
  C:079FH         LINE#         56
BL51 BANKED LINKER/LOCATER V6.22                                                      09/20/2014  19:47:53  PAGE 5


  C:07A1H         LINE#         57
  C:07A3H         LINE#         59
  C:07A5H         LINE#         60
  -------         ENDPROC       UART1_INIT
  -------         PROC          _UART1_PUT_BYTE
  D:0007H         SYMBOL        dat
  C:084AH         LINE#         70
  C:084AH         LINE#         71
  C:084AH         LINE#         72
  C:084CH         LINE#         73
  C:084EH         LINE#         74
  C:0851H         LINE#         75
  C:0853H         LINE#         76
  -------         ENDPROC       _UART1_PUT_BYTE
  -------         PROC          UART1_PUT_ENTER
  C:0854H         LINE#         86
  C:0854H         LINE#         87
  C:0854H         LINE#         88
  C:0859H         LINE#         89
  -------         ENDPROC       UART1_PUT_ENTER
  -------         PROC          _UART1_PUT_STRING
  X:0041H         SYMBOL        s
  -------         DO            
  X:0044H         SYMBOL        len
  D:0004H         SYMBOL        i
  -------         ENDDO         
  C:06BAH         LINE#         100
  C:06C5H         LINE#         101
  C:06C5H         LINE#         102
  C:06D6H         LINE#         105
  C:06ECH         LINE#         106
  C:06ECH         LINE#         107
  C:0702H         LINE#         108
  C:0709H         LINE#         109
  C:071FH         LINE#         110
  C:071FH         LINE#         111
  C:0722H         LINE#         112
  C:0722H         LINE#         114
  C:0722H         LINE#         115
  C:0727H         LINE#         116
  C:0727H         LINE#         117
  -------         ENDPROC       _UART1_PUT_STRING
  -------         PROC          _UART1_PUT_NUMBER
  X:001DH         SYMBOL        dat
  -------         DO            
  X:0021H         SYMBOL        temp
  -------         ENDDO         
  C:0728H         LINE#         127
  C:072EH         LINE#         128
  C:072EH         LINE#         129
  C:0741H         LINE#         131
  C:0758H         LINE#         132
  -------         ENDPROC       _UART1_PUT_NUMBER
  -------         PROC          _UART1_PUT_INF
  D:0001H         SYMBOL        inf
  X:0046H         SYMBOL        dat
  C:0761H         LINE#         144
BL51 BANKED LINKER/LOCATER V6.22                                                      09/20/2014  19:47:53  PAGE 6


  C:0767H         LINE#         145
  C:0767H         LINE#         146
  C:076AH         LINE#         147
  C:077BH         LINE#         148
  -------         ENDPROC       _UART1_PUT_INF
  -------         ENDMOD        UART

  -------         MODULE        BSP
  C:0000H         SYMBOL        _ICE_DUMMY_
  D:0080H         PUBLIC        P0
  D:0090H         PUBLIC        P1
  D:00A0H         PUBLIC        P2
  D:00B0H         PUBLIC        P3
  D:00C0H         PUBLIC        P4
  D:00C8H         PUBLIC        P5
  D:00A8H         PUBLIC        IE
  D:00B8H         PUBLIC        IP
  C:07C6H         PUBLIC        znx_bsp_init
  D:00D8H         PUBLIC        CCON
  B:00A0H.0       PUBLIC        P20
  B:00A0H.1       PUBLIC        P21
  D:0098H         PUBLIC        SCON
  B:00A0H.3       PUBLIC        P23
  D:0088H         PUBLIC        TCON
  B:00B0H.4       PUBLIC        P34
  B:00A0H.7       PUBLIC        P27
  D:00F0H         PUBLIC        B
  D:00E0H         PUBLIC        ACC
  D:00D0H         PUBLIC        PSW
  -------         PROC          ZNX_BSP_INIT
  -------         DO            
  D:0006H         SYMBOL        i
  -------         ENDDO         
  C:07C6H         LINE#         16
  C:07C6H         LINE#         17
  C:07C6H         LINE#         18
  C:07C9H         LINE#         20
  C:07CBH         LINE#         21
  C:07CDH         LINE#         22
  C:07CDH         LINE#         23
  C:07CDH         LINE#         24
  C:07CFH         LINE#         25
  C:07D1H         LINE#         26
  C:07DCH         LINE#         27
  C:07DEH         LINE#         28
  C:07E0H         LINE#         29
  C:07E2H         LINE#         30
  C:07E4H         LINE#         32
  -------         ENDPROC       ZNX_BSP_INIT
  -------         ENDMOD        BSP

  -------         MODULE        DELAY
  C:0000H         SYMBOL        _ICE_DUMMY_
  C:07A6H         PUBLIC        _delay_ms
  C:083FH         PUBLIC        _delay_ns
  -------         PROC          _DELAY_MS
  D:0006H         SYMBOL        num
BL51 BANKED LINKER/LOCATER V6.22                                                      09/20/2014  19:47:53  PAGE 7


  -------         DO            
  D:0004H         SYMBOL        x
  D:0002H         SYMBOL        y
  -------         ENDDO         
  C:07A6H         LINE#         24
  C:07A6H         LINE#         25
  C:07A6H         LINE#         27
  C:07B0H         LINE#         28
  C:07C5H         LINE#         29
  -------         ENDPROC       _DELAY_MS
  -------         PROC          _DELAY_NS
  D:0006H         SYMBOL        num
  C:083FH         LINE#         39
  C:083FH         LINE#         40
  C:083FH         LINE#         41
  C:0849H         LINE#         42
  -------         ENDPROC       _DELAY_NS
  -------         ENDMOD        DELAY

  -------         MODULE        ALLLED
  C:0000H         SYMBOL        _ICE_DUMMY_
  D:0080H         PUBLIC        P0
  D:0090H         PUBLIC        P1
  D:00A0H         PUBLIC        P2
  D:00B0H         PUBLIC        P3
  D:00C0H         PUBLIC        P4
  D:00C8H         PUBLIC        P5
  D:00A8H         PUBLIC        IE
  D:00B8H         PUBLIC        IP
  C:02BBH         PUBLIC        LED_Circle_Do
  D:00D8H         PUBLIC        CCON
  B:0080H.0       PUBLIC        P00
  B:0090H.0       PUBLIC        P10
  B:0080H.1       PUBLIC        P01
  B:0090H.1       PUBLIC        P11
  B:0080H.2       PUBLIC        P02
  B:0090H.2       PUBLIC        P12
  B:0080H.3       PUBLIC        P03
  B:0080H.4       PUBLIC        P04
  D:0098H         PUBLIC        SCON
  B:00B0H.2       PUBLIC        P32
  B:0080H.5       PUBLIC        P05
  D:0088H         PUBLIC        TCON
  B:00C0H.2       PUBLIC        P42
  B:00B0H.3       PUBLIC        P33
  B:00A0H.4       PUBLIC        P24
  B:0080H.6       PUBLIC        P06
  B:00A0H.5       PUBLIC        P25
  B:0090H.6       PUBLIC        P16
  B:00C0H.4       PUBLIC        P44
  B:00A0H.6       PUBLIC        P26
  B:0090H.7       PUBLIC        P17
  B:00C8H.4       PUBLIC        P54
  B:00C0H.5       PUBLIC        P45
  B:00B0H.6       PUBLIC        P36
  B:00A0H.7       PUBLIC        P27
  B:00C8H.5       PUBLIC        P55
BL51 BANKED LINKER/LOCATER V6.22                                                      09/20/2014  19:47:53  PAGE 8


  B:00C0H.6       PUBLIC        P46
  B:00B0H.7       PUBLIC        P37
  B:00C0H.7       PUBLIC        P47
  D:00F0H         PUBLIC        B
  D:00E0H         PUBLIC        ACC
  D:00D0H         PUBLIC        PSW
  -------         PROC          LED_CIRCLE_DO
  -------         DO            
  I:0008H         SYMBOL        i
  -------         ENDDO         
  C:02BBH         LINE#         7
  C:02BBH         LINE#         8
  C:02BBH         LINE#         9
  C:02C1H         LINE#         11
  C:02C5H         LINE#         12
  C:02C5H         LINE#         13
  C:02C7H         LINE#         14
  C:02CEH         LINE#         15
  C:02D0H         LINE#         16
  C:02D7H         LINE#         18
  C:02D9H         LINE#         19
  C:02E0H         LINE#         20
  C:02E2H         LINE#         21
  C:02E9H         LINE#         23
  C:02EBH         LINE#         24
  C:02F2H         LINE#         25
  C:02F4H         LINE#         26
  C:02FBH         LINE#         28
  C:02FDH         LINE#         29
  C:0304H         LINE#         30
  C:0306H         LINE#         31
  C:030DH         LINE#         33
  C:030FH         LINE#         34
  C:0316H         LINE#         35
  C:0318H         LINE#         36
  C:031FH         LINE#         38
  C:0321H         LINE#         39
  C:0328H         LINE#         40
  C:032AH         LINE#         41
  C:0331H         LINE#         43
  C:0333H         LINE#         44
  C:033AH         LINE#         45
  C:033CH         LINE#         47
  C:033EH         LINE#         48
  C:0345H         LINE#         49
  C:0347H         LINE#         50
  C:034EH         LINE#         52
  C:0350H         LINE#         53
  C:0357H         LINE#         54
  C:0359H         LINE#         55
  C:0360H         LINE#         57
  C:0362H         LINE#         58
  C:0369H         LINE#         59
  C:036BH         LINE#         60
  C:0372H         LINE#         62
  C:0374H         LINE#         63
  C:037BH         LINE#         64
BL51 BANKED LINKER/LOCATER V6.22                                                      09/20/2014  19:47:53  PAGE 9


  C:037DH         LINE#         65
  C:0384H         LINE#         67
  C:0386H         LINE#         68
  C:038DH         LINE#         69
  C:038FH         LINE#         70
  C:0396H         LINE#         72
  C:0398H         LINE#         73
  C:039FH         LINE#         74
  C:03A1H         LINE#         75
  C:03A8H         LINE#         77
  C:03AAH         LINE#         78
  C:03B1H         LINE#         79
  C:03B3H         LINE#         80
  C:03BAH         LINE#         82
  C:03BCH         LINE#         83
  C:03C3H         LINE#         84
  C:03C5H         LINE#         85
  C:03CCH         LINE#         87
  C:03CEH         LINE#         88
  C:03D5H         LINE#         89
  C:03D7H         LINE#         90
  C:03DEH         LINE#         92
  C:03E0H         LINE#         93
  C:03E7H         LINE#         94
  C:03E9H         LINE#         95
  C:03F0H         LINE#         97
  C:03F2H         LINE#         98
  C:03F9H         LINE#         99
  C:03FBH         LINE#         100
  C:0402H         LINE#         102
  C:0404H         LINE#         103
  C:040BH         LINE#         104
  C:040DH         LINE#         105
  C:0414H         LINE#         107
  C:0416H         LINE#         108
  C:041DH         LINE#         109
  C:041FH         LINE#         110
  C:0426H         LINE#         112
  C:0428H         LINE#         113
  C:042FH         LINE#         114
  C:0431H         LINE#         115
  C:0438H         LINE#         117
  C:043AH         LINE#         118
  C:0441H         LINE#         119
  C:0443H         LINE#         120
  C:044AH         LINE#         122
  C:044CH         LINE#         123
  C:044EH         LINE#         124
  C:0455H         LINE#         125
  C:0457H         LINE#         126
  C:045EH         LINE#         127
  C:0460H         LINE#         129
  C:0462H         LINE#         130
  C:0469H         LINE#         131
  C:046BH         LINE#         132
  C:0472H         LINE#         134
  C:0474H         LINE#         135
BL51 BANKED LINKER/LOCATER V6.22                                                      09/20/2014  19:47:53  PAGE 10


  C:047BH         LINE#         136
  C:047DH         LINE#         137
  C:0484H         LINE#         139
  C:0486H         LINE#         140
  C:048DH         LINE#         141
  C:048FH         LINE#         142
  C:0496H         LINE#         144
  C:0498H         LINE#         145
  C:049FH         LINE#         146
  C:04A1H         LINE#         147
  C:04A8H         LINE#         149
  C:04AAH         LINE#         150
  C:04B1H         LINE#         151
  C:04B3H         LINE#         152
  C:04BAH         LINE#         153
  C:04D3H         LINE#         154
  -------         ENDPROC       LED_CIRCLE_DO
  -------         ENDMOD        ALLLED

  -------         MODULE        ?C?COPY
  C:00D3H         PUBLIC        ?C?COPY
  -------         ENDMOD        ?C?COPY

  -------         MODULE        ?C?CLDOPTR
  C:00F9H         PUBLIC        ?C?CLDOPTR
  -------         ENDMOD        ?C?CLDOPTR

  -------         MODULE        ?C?CSTOPTR
  C:0126H         PUBLIC        ?C?CSTOPTR
  -------         ENDMOD        ?C?CSTOPTR

  -------         MODULE        ?C?LMUL
  C:0148H         PUBLIC        ?C?LMUL
  -------         ENDMOD        ?C?LMUL

  -------         MODULE        ?C?ULDIV
  C:01D3H         PUBLIC        ?C?ULDIV
  -------         ENDMOD        ?C?ULDIV

  -------         MODULE        ?C?LSTXDATA
  C:0265H         PUBLIC        ?C?LSTXDATA
  -------         ENDMOD        ?C?LSTXDATA

  -------         MODULE        ?C?LSTKXDATA
  C:0271H         PUBLIC        ?C?LSTKXDATA
  -------         ENDMOD        ?C?LSTKXDATA

  -------         MODULE        STRLEN
  C:07FBH         PUBLIC        _STRLEN
  -------         ENDMOD        STRLEN

  -------         MODULE        ?C?CLDPTR
  C:02A2H         PUBLIC        ?C?CLDPTR
  -------         ENDMOD        ?C?CLDPTR

*** WARNING L16: UNCALLED SEGMENT, IGNORED FOR OVERLAY PROCESS
    SEGMENT: ?PR?_STRTOU32?MYFUN
BL51 BANKED LINKER/LOCATER V6.22                                                      09/20/2014  19:47:53  PAGE 11



*** WARNING L16: UNCALLED SEGMENT, IGNORED FOR OVERLAY PROCESS
    SEGMENT: ?PR?UART1_INIT?UART

*** WARNING L16: UNCALLED SEGMENT, IGNORED FOR OVERLAY PROCESS
    SEGMENT: ?PR?_UART1_PUT_INF?UART

*** WARNING L16: UNCALLED SEGMENT, IGNORED FOR OVERLAY PROCESS
    SEGMENT: ?PR?_DELAY_MS?DELAY

Program Size: data=11.0 xdata=76 code=2142
LINK/LOCATE RUN COMPLETE.  4 WARNING(S),  0 ERROR(S)
