:1003A3000A5A4E2D5820426F61726420546573744B
:1003B30021210A0D506C6561736520696E70757437
:1003C30020312D3720746F2073656C65637420743E
:1003D3006573740A0D00506C6561736520696E70F6
:1003E300757420312D3720746F2073656C656374C9
:1003F30020746573740A0D00313A546573745F4455
:1004030069676972746F6E0A0D00323A54657374CA
:100413005F445A0A0D00333A546573745F44533191
:10042300384232300A0D00343A546573745F4154D4
:1004330034354442313631440A0D00353A5465733C
:10044300745F504346383536330A0D00363A5465E7
:1004530073745F544C433534390A0D00373A54658D
:1004630073745F544C353631350A0D002A2A2A2A13
:100473002A2A2A2A2A2A2A2A2A2A2A2A2A2A2A2AD9
:100483002A2A2A2A2A2A2A2A2A2A2A2A2A2A2A2AC9
:100493002A2A2A2A2A2A2A2A2A0A0D002A2A2A2A20
:1004A3002A2A2A2A2A2A202057656C636F6D652021
:1004B300746F205A4E2D5820776F726C6420212060
:1004C3002A2A2A2A2A2A2A2A2A0A0D002A2A2A2AF0
:1004D3002A2A2A2A2A2A20205A4E2D582054657364
:1004E300742050726F6772616D6D65202A2A2A2A03
:1004F3002A2A2A2A2A2A2A2A2A0A0D002A2A2A2AC0
:100503002A2A2A2A2A2A2053656C65637420796F64
:1005130075722063686F6F73652020202A2A2A2A48
:100523002A2A2A2A2A2A2A2A2A0A0D002A2A2A2A8F
:1005330020507265737320455343206B6579207493
:100543006F20717569742063757272656E742054BF
:1005530065737421202A2A2A2A0A0D002A2A2A2AA4
:1005630020687474703A2F2F6462656D6265642E1F
:1005730074616F62616F2E636F6D202A2A2A2A2AA3
:0C0583002A2A2A2A2A2A2A2A2A0A0D00DB
:1014FD0060360051FF1E36FF03D9FF19C5FF03FBF0
:10150D00FF087FFF040DFF16A6FF0419FF075FFFFD
:10151D00042AFF0F01FF043EFF1B51FF044FFF166E
:0A152D00F4FF045F0000000000005E
:091E36007BFF7A0379A302156F0A
:100E2E00121CAC121BFA7F327E001200037BFF7A7B
:100E3E0004796F12156F7BFF7A04799F12156F7B01
:100E4E00FF7A04796F12156F7BFF7A0479CF121532
:100E5E006F7BFF7A0479FF12156F7BFF7A05792F6E
:100E6E0012156F7BFF7A05795F12156F7BFF7A047F
:100E7E00796F12156FE4900006F0900006E0FF7592
:100E8E00F006A42451F582E43400F583A3E0FAA31E
:100E9E00E04A6021EF75F006A42454F582E4340094
:100EAE00F583E0FBA3E0FAA3E0F912156F900006BC
:100EBE00E004F080C59000C5E0B401F9E4F09000C4
:100ECE0006E0FF9000B0E0FEC39F5019EE75F006ED
:100EDE00A42451F582E43400F583A3E0FAA3E0F9EB
:100EEE0012034980D0900051A3E0FAA3E0F9120357
:030EFE004980C266
:101D9700000000000000000000000000000000003C
:041DA7000000000038
:1009950090003412030C900038EBF0A3EAF0A3E9C1
:0109A500F061
:1009A600783B7C007D017BFF7A1D79977E007F1462
:1009B6001200F6E490004FF0A3F0900034E0FCA3A0
:1009C600E0FDA3E0FEA3E0FFEC4D4E4F6048E47B64
:1009D6000AFAF9F8900034A3A3A3E012027AEB24F2
:1009E60030FF90004FE0243BF582E43400F583EFBE
:1009F600F090004FE004F0900034E0FCA3E0FDA38B
:100A0600E0FEA3E0FFE47B0AFAF9F812027A90000E
:100A16003412030C80A490004FE0A3F0E490004F42
:100A2600F0900050E0FF90004FE0FEC39F5036EE7E
:100A3600FDC3EF9DFFE49400FE743A2FF582740027
:100A46003EF583E0FF900038E0FBA3E0FAA3E0F96F
:100A560090004FE0F582758300EF12016290004F1F
:100A6600E004F080BC90004FE0701C900038E0FB82
:100A7600A3E0FAA3E0F990004FE0FF04F08F82753F
:100A860083007430120162900038E0FBA3E0FAA301
:0F0A9600E0F990004FE0F582758300E402016201
:0B0D58009000C7EBF0A3EAF0A3E9F065
:100D6300A3120318000000009000CE120318000025
:100D73000001121D829000D2EFF09000D2E0D394D4
:100D8300005003020E1F9000CAE0F8A3E0F9A3E0AD
:100D9300FAA3E0FBC000C001C002C0039000D2E090
:100DA30024FFFFE434FFFE9000C7E0FBA3E0FAA3B7
:100DB300E0F98F828E83120135FF3395E0FEEF2435
:100DC300D0FFEE34FFFE3395E0FDFC9000CEE0F85B
:100DD300A3E0F9A3E0FAA3E0FB1201EFD003D002F2
:100DE300D001D000EB2FFFEA3EFEE93DFDE83CFCDD
:100DF3009000CA12030C9000CEE0FCA3E0FDA3E038
:100E0300FEA3E0FFE47B0AFAF9F81201EF9000CEAB
:100E130012030C9000D2E014F0020D7D9000CAE0A2
:0A0E2300FCA3E0FDA3E0FEA3E0FF46
:010E2D0022A2
:101D56000A00000000000000000000000000000073
:061D660000000000000077
:101537004100C5004100B0005400B10000000000A8
:101547000000000000000000000000000000004153
:0315570000C600CB
:101BFA0053A23F53877F759850438E40538EFE53AE
:101C0A00890F438920758BB8758DB8C2ABD28ED235
:041C1A00ACD2AF2277
:0E1DF000C2ACC2998F993099FDC299D2AC2233
:0A1E22007F0D121DF07F0A021DF073
:0B156F00900034EBF0A3EAF0A3E9F0D9
:10157A00121D82EF24FFFFEE34FF900037F0A3EF35
:10158A00F0E4FDFCD3900038E09DEC6480F8900014
:10159A0037E0648098401D900034E0FBA3E0FAA392
:1015AA00E0F98D828C83120135FF121DF00DBD000A
:1015BA00010C80D0900034E0FBA3E0FAA3E0F98D9F
:1015CA00828C83120135FEB40A03021E22AF061270
:0215DA001DF002
:0115DC0022EC
:06198C0090001C12030C88
:1019920078207C007D017BFF7A1D79587E007F14C0
:1019A2001200F690001CE0FCA3E0FDA3E0FEA3E021
:1019B200FF7B017A0079201209957B017A00792058
:0319C20002156F9C
:101C660090000812030C12156F900008E0FCA3E028
:101C7600FDA3E0FEA3E0FF12198C7BFF7A1D7956C7
:031C860002156FD5
:03002300020AA529
:100AA500C0E0C0F0C083C082C0D075D000C000C017
:0D0AB50001C002C003C004C005C006C00798
:100AC200C2AC209803020B74C298900000E599F022
:100AD200E024F8604C24ED6070240E70717F0A12DD
:100AE2001DF07F0D121DF09000C6E0FF04F074B1FE
:100AF2002FF582E43400F583E4F09000C504F0A3FE
:100B0200E4F07B017A0079B1120C7D9000B0EFF035
:100B12007E007F147D007B017A0079B112034F8041
:100B2200537F08121DF07F20121DF07F08121DF066
:100B32009000C6E0FF14F074B12FF582E43400F5A2
:100B420083E4F09000C5F0802B75C72080269000CA
:100B520000E0FF121DF0E0FF9000C6E0FE04F0741A
:100B6200B12EF582E43400F583EFF09000C5E4F095
:060B72008002D299D2AC12
:100B7800D007D006D005D004D003D002D001D000D1
:0B0B8800D0D0D082D083D0F0D0E0327B
:101CAC00E4FFFEC2A3C2A0C2A1D2A10FBF00010ECD
:0E1CBC00EF64104E70F1C2A7D2A7C2B4D2B42A
:011CCA0022F7
:10000300E4FDFCC3ED9FEC9E5015E4FBFA0BBB0033
:0F001300010ABA08F8BB6BF50DBD00010C80E4C3
:0100220022BB
:0B1E0C00EF1FAC0670011E4C70F622A8
:0A1E2C003F065B4F666D7D077F6F78
:10155A004400D53F3F3F3F4100D9004200D300003D
:10195200EF14601414601B14601E24037022D2CC96
:10196200D2CDD296C2978018D2CCD2CDC296D2977F
:10197200800ED2CCC2CD8004C2CCD2CDD296D29728
:0A198200AF05120B93C2A7D2A722F3
:1019C5009000D3E475F0011201D9AFF0FE12138037
:1019D5007F057E001200039000D9E0FF24D5F58233
:1019E500E43400F583E0FD1219529000D9E004F0CB
:0619F500E05403F080CA7B
:10138000AB07AA067C007D0A120184742C2DF5821D
:10139000741E3CF583E4939000D5F07C007D0AAF89
:1013A00003AE021201847C007D0A120184742C2D8C
:1013B000F582741E3CF583E4939000D6F07C007DAA
:1013C00064AF03AE021201847C007D0A12018474B2
:1013D0002C2DF582741E3CF583E4939000D7F0AE7B
:1013E00002AF037C037DE81201847C007D0A1201B8
:1013F00084742C2DF582741E3CF583E4939000D800
:02140000F022D8
:100B93008F20A20792A37F0A7E00121E0CC2A17FA0
:100BA3000A7E00121E0CD2A17F0A7E00121E0CA226
:100BB3000692A37F0A7E00121E0CC2A17F0A7E004A
:100BC300121E0CD2A17F0A7E00121E0CA20592A354
:100BD3007F0A7E00121E0CC2A17F0A7E00121E0C29
:100BE300D2A17F0A7E00121E0CA20492A37F0A7E6A
:100BF30000121E0CC2A17F0A7E00121E0CD2A17F1E
:100C03000A7E00121E0CA20392A37F0A7E00121E0C
:100C13000CC2A17F0A7E00121E0CD2A17F0A7E00A5
:100C2300121E0CA20292A37F0A7E00121E0CC2A106
:100C33007F0A7E00121E0CD2A17F0A7E00121E0CB8
:100C4300A20192A37F0A7E00121E0CC2A17F0A7E1C
:100C530000121E0CD2A17F0A7E00121E0CA200926B
:100C6300A37F0A7E00121E0CC2A17F0A7E00121E01
:0A0C73000CD2A17F0A7E00021E0CC5
:10109400D2A2D2A17F0A7E00121E0CC2A17F0A7EB8
:1010A40000121E0CA2A29207D2A17F0A7E00121E79
:1010B4000CC2A17F0A7E00121E0CA2A29206D2A12B
:1010C4007F0A7E00121E0CC2A17F0A7E00121E0C33
:1010D400A2A29205D2A17F0A7E00121E0CC2A17F99
:1010E4000A7E00121E0CA2A29204D2A17F0A7E00E4
:1010F400121E0CC2A17F0A7E00121E0CA2A2920331
:10110400D2A17F0A7E00121E0CC2A17F0A7E0012A9
:101114001E0CA2A29202D2A17F0A7E00121E0CC251
:10112400A17F0A7E00121E0CA2A29201D2A17F0A04
:101134007E00121E0CC2A17F0A7E00121E0CA2A207
:051144009200AF202223
:10058F00001818247E428100007C427C42417E008C
:10059F00003C624040613E00007C464242467C0087
:1005AF00007E407E40407E00007E407E4040400006
:1005BF00003C62404E623E000042427E4242420098
:1005CF0000101010101010000002020202423C0036
:1005DF0000464850684442000040404040407E0082
:1005EF00006666665A5A5A00006262524A464600D0
:1005FF00003C664242663C00007C42427C40400028
:10060F00003C6642426A3C02007C427E424242000B
:10061F00003C423C03413E0000FE10101010100041
:10062F000042424242423C000081424424381000C2
:10063F0000919ABA7A242400004428103864C2002A
:10064F0000C264381010100000FE04182040FE0095
:10065F00400027FE24040120811856085040104006
:10066F0027FC2040C0E04158464E5844404040408F
:10067F0008400840FFFE0840048024FC24A02510F9
:10068F00261004001FF0129012901290FFFE00002F
:10069F00010021083FF80000244024407E7C248480
:1006AF0025283C20242024503C48248E2504020079
:1006BF000C000600020001000300028002800440CB
:1006CF000420082008101008200E400480000000AD
:1006DF0000A0009800907FFC0080008000803E808A
:1006EF000840084008400B201C227012200A00040A
:1006FF0000003FFC010001000100010001000100AA
:10070F0001000100010001000100FFFE00000000D8
:10071F0008800C80090013FE1280348850FC9080F2
:10072F001080108410FE10801080108010801080B8
:10073F00020001003FFE200440083FFC0400082097
:10074F001FF0011001003FF801000100FFFE000043
:04156A0041008700B5
:101C8900EFF4FFE4FEEF1392A0ED1392A3C2A1D2E9
:101C9900A1EFC313FFEDC313FD0EEEB408E7C2B401
:021CA900D2B4B3
:011CAB002216
:10087F00E4900006F0A3F0E4900006F0900006E08C
:10088F00FFC3941A5062EF75F008A4248FF9740512
:10089F0035F0FA7BFF121AF57F327E00120003E467
:1008AF00900007F0900087E0FE24A8F582E4340062
:1008BF00F583E0FF7480A806088002C313D8FCFDFF
:1008CF00121C89900087E004F0E05407F07F017E4E
:1008DF0000120003900007E004F0E0C394A040C4AE
:1008EF00900006E004F08094E4900087F0900006FA
:1008FF00F0900006E0FFC394084003020886EF75EE
:10090F00F020A4245FF9740635F0FA7BFF121B2345
:10091F007F327E00120003E4900007F0900087E022
:10092F00FD25E02488F582E43400F583E0FEED2513
:10093F00E02489F582E43400F583E0FDEDFFC00685
:10094F00C007900087E0FFE47E80A807088005CEEF
:10095F00C313CE13D8F9FDAC06D007D00612189AE0
:10096F00900087E004F0E0540FF07F017E0012004A
:10097F0003900007E004F0E0C39460409F900006EE
:06098F00E004F002090083
:0C189A00900008ECF0A3EDF0AB07AA06EC
:1018A600EBF4FBEAF4FAE4FDEB1392A0900009E0F6
:1018B6001392A3C2A1D2A1EAC313FAEB13FB9000C1
:1018C60008E0C313F0A3E013F00DEDB410DAC2B4D0
:0218D600D2B48A
:0118D80022ED
:011E47002278
:0A1E1700EBF0A3EAF0A3E9F0E4FF0A
:011E2100229E
:031AF50090000856
:101AF800121E17900008E0FBA3E0FAA3E0F98F821A
:101B0800758300120135FE74A82FF582E43400F5C0
:0B1B180083EEF00FEFB408DB021E4765
:031B230090000827
:101B2600121E17900008E0FBA3E0FAA3E0F98F82EB
:101B3600758300120135FE74882FF582E43400F5B2
:0B1B460083EEF00FEFB420DB021E471F
:10164B00415434354442313631442054657374204F
:10165B00212E0D0A005772697465204154343544AC
:10166B00423136314420212E0D0A0052656164202F
:10167B004154343544423136314420212E0D0A0079
:10168B000D0A0041543435444231363144205465FF
:0B169B00737420456E64212E0D0A00C0
:0D1DFE00E4C2827FD7120B93121094D282A0
:011E0B0022B4
:100FCE0090001CEEF0A3EFF0A3ECF0A3EDF0A3EA7B
:040FDE00F0A3EBF0A1
:100FE200121DFEEF30E7F9C2827FE8120B939000E8
:100FF2001CE0FEA3E07806CEC313CE13D8F9FF128D
:101002000B9390001EE0FF90001CA3E0FE25E0255C
:10101200E04FFF120B9390001EA3E0FF120B93E42C
:10102200900025F0A3F0E4FF120B93900026E00459
:10103200F07006900025E004F0C3900026E09404CE
:10104200900025E0940040DEE4900025F0A3F090AB
:101052000020E0FEA3E0FFC3900026E09F90002561
:10106200E09E502B121094900022E0FBA3E0FAA322
:10107200E0F9A3E0FCA3E0F5828C83EF1201629019
:101082000026E004F07006900025E004F080C0D253
:0110920082DB
:01109300223A
:10126E00900026EFF0A3ECF0A3EDF0A3EAF0A3EBD1
:01127E00F07F
:10127F00121DFEEF30E7F9C282900026E024FE60D7
:10128F00070470097F8480027F87120B93E4FF129B
:10129F000B93900027E0FF120B93900027A3E0FF22
:1012AF00120B93E490002EF0A3F0900029E0FEA320
:1012BF00E0FF90002EE0FCA3E0FDC39FEC9E5026C4
:1012CF0090002BE0FBA3E0FAA3E0F98D828C831250
:1012DF000135FF120B9390002FE004F070CC9000BB
:0812EF002EE004F080C4D2825D
:0112F70022D4
:1014020090001DECF0A3EDF090001CEFF0AC02ADEB
:1014120003900023E0F9A3E0FAA3E090002BC9F0C7
:10142200A3EAF0A3E9F0900021E0FAA3E0FB121294
:101432006E121DFEEF30E7F9C28290001CE024FE1E
:1014420060070470097F8380027F86120B939000ED
:101452001DE0FEA3E07806CEC313CE13D8F9FF1227
:101462000B9390001DE0FEA3E07802C333CE33CE8F
:0E147200D8F9FF120B93E4FF120B93D28222E3
:101B7F009000E8EBF0A3EAF0A3E9F09000E8E0F9B9
:101B8F00A3E0FAA3E0900022C9F0A3EAF0A3E9F0E2
:0A1B9F007B007A02E4FDFC020FCE89
:101816009000DA12030C9000DEEBF0A3EAF0A3E9E5
:10182600F09000DAA3A3E0FEA3E0FDAC0690002151
:101836007402F0A3E4F09000DEE0F9A3E0FAA3E07E
:10184600900023C9F0A3EAF0A3E9F0E4FBFA7F01D4
:0318560002140277
:10075F00E4900006F0A3F07BFF7A16794B12156F29
:10076F007BFF7A16796012156F7FE87E0312000304
:10077F00E4900006F0A3F0900006E0FEA3E0FD2455
:10078F0008F58274003EF583EDF0900007E004F069
:10079F007006900006E004F0900006E07004A3E0FD
:1007AF00641470D3900021E4F0A37414F0A37401C7
:1007BF00F0A37400F0A37408F0E4FBFA7D01FC7F52
:1007CF0001121402E4900006F0A3F0900006E0FE80
:1007DF00A3E0FFC39414EE9400501C74082FF5820D
:1007EF0074003EF583E4F0900007E004F070DC90B5
:1007FF000006E004F080D47BFF7A16797612156F2D
:10080F009000227401F0A37400F0A37408F07B141D
:10081F007A00E4FDFC7F01FE120FCEE4900006F09B
:10082F00A3F0900006E0FEA3E0FFC39414EE940043
:10083F00503374082FF58274003EF583E0FFE4FC1B
:10084F00FDFE12198C7BFF7A16798B12156F7F6064
:10085F007EEA121E0C900007E004F070C5900006AF
:10086F00E004F080BD7BFF7A16798E12156F80FE43
:101D6C004453313842323020546573742E20200095
:061D7C00A1E3430D0A0083
:101CCB00E4D287C2877F087E07121E0CD2877F64FF
:0D1CDB007E00121E0CA287E433FF3087FD4F
:011CE80022D9
:1019FB00E4900010F0D2877F0AFE121E0CC2877F84
:101A0B000A7E00121E0CD2877F147E00121E0CA2BF
:101A1B0087E433900010F07FA07E00121E0C900024
:031A2B0010E0FFC9
:011A2E002295
:101BA900900010EFF0D2877F0A7E00121E0CC287C8
:101BB9007F0A7E00121E0C900010E024FF92877F9E
:091BC900B47E00121E0CD287222A
:1018D900E490000EF0A3F090000EF090000FE0FFEE
:1018E900C0071219FB90000EE0FEEFA8060880025F
:1018F900C333D8FCFED0E04E90000FF090000EE00C
:0D19090004F0E0C3940840D390000FE0FF0D
:0119160022AE
:051A630090000EEFF001
:101A6800E4A3F0F090000FE0FFC39408501D740148
:101A7800A807088002C333D8FCFF90000EE05FFF80
:0B1A8800121BA990000FE004F080D9B1
:011A93002230
:101BD20090000AEFF0121CCBEF70FA7F4E121A63DC
:101BE2007FFF121A637FFF121A6390000AE0C43368
:081BF20054E0441FFF021A63D6
:1012F80090000A12031800000000121CCBEF70FACD
:101308007FCC121A637F44121A631219FBEF60FA3A
:10131800121CCBEF70FA7FCC121A637FBE121A63CD
:101328001218D9E4FCFDFE90000A12030C90000A82
:10133800E0F8A3E0F9A3E0FAA3E0FBC000C001C015
:1013480002C0031218D9EFFED003D002D001D0009A
:10135800EBFFEA4EFEE9FDE8FC90000A12030CE4FC
:101368007F717E02FDFC90000AE0F8A3E0F9A3E09B
:07137800FAA3E0FB1201EFF4
:01137F00224B
:1016A600900006120318000000007F01121BD27B77
:1016B600FF7A1D796C12156F1212F8E47B107A27E7
:1016C600F9F81217D290000612030C900006E0FCFF
:1016D600A3E0FDA3E0FEA3E0FF12198C7BFF7A1DB9
:0E16E600797C12156F7F647E0012000380C1B4
:101C1E00D2C27F0A7E00121E0CD2C47F0A7E001230
:101C2E001E0CC2C27F0A7E00121E0CC2C47F0A7E28
:041C3E0000021E0C76
:101C4200C2C27F0A7E00121E0CD2C47F0A7E00121C
:101C52001E0CD2C27F0A7E00121E0CC2C47F0A7EF4
:041C620000021E0C52
:101D0700C2C27F0A7E00121E0CD2C47F0A7E001256
:0B1D17001E0CC2C47F0A7E00021E0CDE
:101D2200D2C27F0A7E00121E0CD2C47F0A7E00122B
:0B1D32001E0CC2C47F0A7E00021E0CC3
:101AC500D2C27F0A7E00121E0CD2C47F0A7E00128B
:101AD5001E0CA2C2E433900018F07F0A7E00121E8D
:0F1AE5000CC2C47F0A7E00121E0C900018E0FF96
:011AF40022CF
:05185900900016EFF005
:10185E00E4A3F0900017E0FFC39408502B900016FD
:10186E00E0FEA807088002C333D8FC3392C2D2C46C
:10187E007F0A7E00121E0CC2C47F0A7E00121E0C4E
:0B188E00900017E004F080CB121AC598
:01189900222C
:10174100E4900017F0D2C2900016F0D2C47F0A7E56
:1017510000121E0C30C21A900017E0FF900016E034
:10176100FE7480A806088002C313D8FC4F900017AE
:10177100F0C2C47F0A7E00121E0C900016E004F035
:0B178100E0C3940840C5900017E0FF93
:01178C00223A
:101917005043463835363320546573742021212EC1
:101927000D0A00796561723A006D6F6E74683A004E
:101937006461793A00686F75723A006D696E3A00B2
:0B1947007365633A007765656B3A003A
:1015DD0090000FEFF0A3EDF0A3EBF0A3EAF0A3E979
:0115ED00F00D
:1015EE00E4A3F0121C1E7FA2121859EF60037F01B4
:1015FE002290000FE0FF121859EF60037F0122E4E2
:10160E00900014F0900010E0FF900014E0FEC39FD5
:10161E005025900011E0FBA3E0FAA3E0F98E82754D
:10162E008300120135FF121859EF60037F012290DB
:0C163E000014E004F080CD121C427F007C
:01164A00227D
:1011490090000FEFF0A3EDF0A3EBF0A3EAF0A3E911
:01115900F0A5
:10115A00E4A3F0A3F0121C1E7FA2121859EF600339
:10116A007F012290000FE0FF121859EF60037F0100
:10117A0022121C1E7FA3121859EF60037F0122E47A
:10118A00900014F0900010E014FF900014E0C39F48
:10119A005024121741900011E0FBA3E0FAA3E0F9F2
:1011AA00A3E0F582758300EF120162121D07900019
:1011BA0014E004F080CE121741900011E0FBA3E086
:1011CA00FAA3E0F9A3E0F582758300EF1201621237
:0711DA001D22121C427F00E0
:0111E10022EB
:0F1DD200EFC4540F75F00AA4FEEF540F2EFF223A
:101DBF00EF75F00A84C454F0FEEF75F00A84EE2537
:031DCF00F0FF2200
:101480007B017A0079087D077F02121149EF706AAB
:10149000900008E0547FFF121DD29000E1EFF09021
:1014A0000009E0547FFF121DD29000E2EFF090009F
:1014B0000AE0543FFF121DD29000E3EFF090000BC2
:1014C000E0543FFF121DD29000E4EFF090000CE0DA
:1014D0005407FF121DD29000E5EFF090000DE0548C
:1014E0001FFF121DD29000E6EFF090000EE0FF12F9
:0C14F0001DD29000E7EFF07F00227F018A
:0114FC0022CD
:101A2F00E4FDED7E007B0124E1F9EE3400FA1201B2
:101A3F001CFF121DBF74082DF582E43400F583EFEF
:101A4F00F00DEDB407DC7B017A0079087D077F028A
:031A5F001215DD80
:011A62002261
:100F0100E4900006F0A3F09000E7740EF09000E684
:100F11007408F09000E4740AF09000E3740EF0900D
:100F210000E27423F0E49000E1F09000E504F01297
:100F31001A2F7BFF7A19791712156F7F847E03129E
:100F410000031214809000E1E0F4F5907BFF7A1920
:100F5100792A9000E7E0FFE4FCFDFE121C667BFFAE
:100F61007A1979309000E6E0FFE4FCFDFE121C6680
:100F71007BFF7A1979379000E4E0FFE4FCFDFE1273
:100F81001C667BFF7A19793C9000E3E0FFE4FCFDED
:100F9100FE121C667BFF7A1979429000E2E0FFE4C1
:100FA100FCFDFE121C667BFF7A1979479000E1E097
:100FB100FFE4FCFDFE121C667BFF7A19794C900060
:0D0FC100E5E0FFE4FCFDFE121C66020F33AC
:101D3D00544C4335343920546573742021212E0DB4
:091D4D000A0076616C75653A002C
:10178D00E4900008F0A3F0D2A2F0900009E0FFC3AE
:10179D009408502B30A215900008E0FE7480A80725
:1017AD00088002C313D8FC4E900008F0D2A1C2A14C
:1017BD007F0A7E00121E0C900009E004F080CB9091
:0417CD000008E0FF31
:0117D10022F5
:101CE900E4900007F0C28012178D900007EFF0D240
:0D1CF900807F327E00121E0C900007E0FF7D
:011D060022BA
:101B5100E4900006F07BFF7A1D793D12156F121C8F
:101B6100E9900006EFF07BFF7A1D794FE0FFE4FC7E
:0E1B7100FDFE121C667F647E0012000380D70A
:081E3F0076616C75653A200024
:101A9400900008EEF0A3EFF0900008E0FEA3E078D9
:101AA40002C333CE33CED8F9F0EE900008F0C281F1
:101AB400E0FF120B93900008A3E0FF120B93D28176
:011AC40022FF
:1016F400E4900006F0A3F0E4900006F0A3F07BFF72
:101704007A1E793F900006E0FEA3E0FFE4FCFD12A0
:101714001C66900006E0FEA3E0FF121A947F0A7E86
:1017240000120003900007E004F07006900006E049
:0D17340004F0C3900006E0940440C380BAA6
:030000000211E208
:0C11E200787FE4F6D8FD75812102122907
:10002600E709F608DFFA8046E709F208DFFA803EBC
:1000360088828C83E709F0A3DFFA8032E309F608A9
:10004600DFFA8078E309F208DFFA807088828C8311
:10005600E309F0A3DFFA806489828A83E0A3F608C5
:10006600DFFA805889828A83E0A3F208DFFA804C9F
:1000760080D280FA80C680D4806980F28033801076
:1000860080A680EA809A80A880DA80E280CA8033DF
:1000960089828A83ECFAE493A3C8C582C8CCC58357
:1000A600CCF0A3C8C582C8CCC583CCDFE9DEE78027
:1000B6000D89828A83E493A3F608DFF9ECFAA9F0A6
:1000C600EDFB2289828A83ECFAE0A3C8C582C8CCFC
:1000D600C583CCF0A3C8C582C8CCC583CCDFEADE15
:1000E600E880DB89828A83E493A3F208DFF980CC77
:1000F60088F0EF60010E4E60C388F0ED2402B40470
:100106000050B9F582EB2402B4040050AF23234516
:06011600822390007673C5
:10011C00BB010689828A83E0225002E722BBFE02E1
:09012C00E32289828A83E4932214
:10013500BB010CE58229F582E5833AF583E022507F
:1001450006E92582F8E622BBFE06E92582F8E222C9
:0D015500E58229F582E5833AF583E49322E3
:10016200F8BB010DE58229F582E5833AF583E8F0D3
:10017200225006E92582C8F622BBFE05E92582C87F
:02018200F22267
:10018400BC000BBE0029EF8DF084FFADF022E4CC5F
:10019400F875F008EF2FFFEE33FEEC33FCEE9DEC28
:1001A400984005FCEE9DFE0FD5F0E9E4CEFD22ED6E
:1001B400F8F5F0EE8420D21CFEADF075F008EF2FB8
:1001C400FFED33FD4007985006D5F0F222C398FDA9
:0501D4000FD5F0EA2246
:1001D900A3F8E0C5F025F0F0E582158270021583D9
:0601E900E0C838F0E82236
:1001EF00E88FF0A4CC8BF0A42CFCE98EF0A42CFCAF
:1001FF008AF0EDA42CFCEA8EF0A4CDA8F08BF0A42D
:10020F002DCC3825F0FDE98FF0A42CCD35F0FCEB8B
:10021F008EF0A4FEA9F0EB8FF0A4CFC5F02ECD3950
:0F022F00FEE43CFCEAA42DCE35F0FDE43CFC22BD
:10023E0075F008758200EF2FFFEE33FECD33CDCC77
:10024E0033CCC58233C5829BED9AEC99E5829840FA
:10025E000CF582EE9BFEED9AFDEC99FC0FD5F0D6D7
:10026E00E4CEFBE4CDFAE4CCF9A88222B800C1B901
:10027E000059BA002DEC8BF084CFCECDFCE5F0CB3F
:10028E00F97818EF2FFFEE33FEED33FDEC33FCEB78
:10029E0033FB10D703994004EB99FB0FD8E5E4F933
:1002AE00FA227818EF2FFFEE33FEED33FDEC33FC20
:1002BE00C933C910D7059BE99A4007EC9BFCE99A14
:1002CE00F90FD8E0E4C9FAE4CCFB2275F010EF2F59
:1002DE00FFEE33FEED33FDCC33CCC833C810D70759
:1002EE009BEC9AE899400AED9BFDEC9AFCE899F894
:0E02FE000FD5F0DAE4CDFBE4CCFAE4C8F92227
:1017D200C2D5E830E70FB2D5E4C39BFBE49AFAE442
:1017E20099F9E498F8EC30E717B2D512180812020A
:1017F2007AE4C39BFBE49AFAE499F9E498F880034B
:1018020012027A30D50DE4C39FFFE49EFEE49DFDF3
:04181200E49CFC2234
:0C030C00ECF0A3EDF0A3EEF0A3EFF02264
:10031800A8828583F0D083D08212032F12032F1274
:10032800032F12032FE473E493A3C583C5F0C58399
:10033800C8C582C8F0A3C583C5F0C583C8C582C82F
:010348002292
:060349008A838982E4733F
:101D8200E4FFFE12011C600C0FEF70010E09E970F6
:051D9200F20A80EF22BF
:100C7D00900001EBF0A3EAF0A3E9F0900001E0FB96
:100C8D00A3E0FAA3E0F912011CFF121DAB500C906A
:100C9D000002E475F00112038D80E0D2089000018E
:100CAD00E0FBA3E0FAA3E0F912011CFF642B600442
:100CBD00EFB42D1D900001E0FBA3E475F0011201CE
:100CCD00D9A9F0FA12011C642D6003D38001C392DF
:100CDD0008E4900004F0A3F0900001E0FBA3E0FA1B
:100CED00A3E0F912011CFF121DE15042900001E03A
:100CFD00FBA3E0FAA3E0F912011CFF3395E0FEEF30
:100D0D0024D0FBEE34FFFA900004E0FEA3E0FF7C5C
:100D1D00007D0A12037BEF2BFFEE3A900004F0A347
:100D2D00EFF0900002E475F00112038D80AA3008F7
:100D3D000A900004E0FEA3E0FF800F900004E0FEA7
:0B0D4D00A3E0FFC3E49FFFE49EFE2232
:10034F00EF4E6012EF60010EEDBB010B89828A83C5
:10035F00F0A3DFFCDEFA2289F05007F709DFFCA9D2
:0C036F00F022BBFEFCF309DFFCA9F02229
:1011EE00020E2EE493A3F8E493A34003F68001F2DB
:1011FE0008DFF48029E493A3F85407240CC8C33302
:10120E00C4540F4420C8834004F456800146F6DFD0
:10121E00E4800B01020408102040809014FDE47E4F
:10122E00019360BCA3FF543F30E509541FFEE493C5
:10123E00A360010ECF54C025E060A840B8E493A38C
:10124E00FAE493A3F8E493A3C8C582C8CAC583CAB7
:10125E00F0A3C8C582C8CAC583CADFE9DEE780BE6F
:01156E00007C
:10037B00EF8DF0A4A8F0CF8CF0A428CE8DF0A42E96
:02038B00FE2250
:10038D00C5F0F8A3E028F0C5F0F8E58215827002FB
:06039D001583E038F02298
:0F1DE100EFC394304007EF943A50028001C322C1
:101DAB00EFC394094005EF940E4004EFB42003D326
:041DBB008001C322BE
:00000001FF
