:10066300544C4335343920546573742021212E0DA5
:090673000A0076616C75653A001D
:10058D00E4900000F01206261205E47BFF7A06794E
:10059D00631204A1120645900000EFF07BFF7A066E
:1005AD007975E0FFE4FCFDFE1205C17F647E00124B
:0405BD00060680D7D7
:1006A7000000000000000000000000000000000043
:0406B700000000003F
:1002BB0090001D120265900021EBF0A3EAF0A3E978
:0102CB00F042
:1002CC0078247C007D017BFF7A0679A77E007F1461
:1002DC001200D3E4900038F0A3F090001DE0FCA3D2
:1002EC00E0FDA3E0FEA3E0FFEC4D4E4F6048E47B45
:1002FC000AFAF9F890001DA3A3A3E01201D3EB2492
:10030C0030FF900038E02424F582E43400F583EFCC
:10031C00F0900038E004F090001DE0FCA3E0FDA399
:10032C00E0FEA3E0FFE47B0AFAF9F81201D3900097
:10033C001D12026580A4900038E0A3F0E490003810
:10034C00F0900039E0FF900038E0FEC39F5036EE8D
:10035C00FDC3EF9DFFE49400FE74232FF58274001F
:10036C003EF583E0FF900021E0FBA3E0FAA3E0F967
:10037C00900038E0F582758300EF1201269000386A
:10038C00E004F080BC900038E0701C900021E0FB91
:10039C00A3E0FAA3E0F9900038E0FF04F08F827537
:1003AC0083007430120126900021E0FBA3E0FAA335
:0F03BC00E0F9900038E0F582758300E402012635
:0B03CB0090003AEBF0A3EAF0A3E9F089
:1003D600A312027100000000900041120271000099
:1003E6000001120692900045EFF0900045E0D3948C
:1003F60000500302049290003DE0F8A3E0F9A3E068
:10040600FAA3E0FBC000C001C002C003900045E0B3
:1004160024FFFFE434FFFE90003AE0FBA3E0FAA3DA
:10042600E0F98F828E831200F9FF3395E0FEEF2408
:10043600D0FFEE34FFFE3395E0FDFC900041E0F87E
:10044600A3E0F9A3E0FAA3E0FB120148D003D0022F
:10045600D001D000EB2FFFEA3EFEE93DFDE83CFC73
:1004660090003D120265900041E0FCA3E0FDA3E090
:10047600FEA3E0FFE47B0AFAF9F812014890004176
:10048600120265900045E014F00203F090003DE092
:0A049600FCA3E0FDA3E0FEA3E0FFDD
:0104A0002239
:10067C000A00000000000000000000000000000064
:06068C0000000000000068
:1005E40053A23F53877F759850438E40538EFE53DA
:1005F400890F438920758BB8758DB8C2ABD28ED262
:02060400AF2223
:0A06D200C2998F993099FDC2992258
:0A06DC007F0D1206D27F0A0206D23B
:0B04A10090001DEBF0A3EAF0A3E9F0CF
:1004AC00120692EF24FFFFEE34FF900020F0A3EF32
:1004BC00F0E4FDFCD3900021E09DEC6480F890000A
:1004CC0020E0648098401D90001DE0FBA3E0FAA39F
:1004DC00E0F98D828C831200F9FF1206D20DBD005B
:1004EC00010C80D090001DE0FBA3E0FAA3E0F98D95
:1004FC00828C831200F9FEB40A030206DCAF0612EA
:02050C0006D215
:01050E0022CA
:0605540090000512026593
:10055A0078097C007D017BFF7A06797E7E007F1414
:10056A001200D3900005E0FCA3E0FDA3E0FEA3E0A7
:10057A00FF7B017A0079091202BB7B017A007909B3
:03058A000204A1C7
:1005C1009000011202651204A1900001E0FCA3E079
:1005D100FDA3E0FEA3E0FF1205547BFF7A06797CC0
:0305E1000204A170
:10062600E4FFFEC2A3C2A0C2A1D2A10FBF00010E69
:0E063600EF64104E70F1C2A7D2A7C2B4D2B4C6
:010644002293
:10060600E4FDFCC3ED9FEC9E5015E4FBFA0BBB002A
:0F061600010ABA08F8BB6BF50DBD00010C80E4BA
:0106250022B2
:0B06C700EF1FAC0670011E4C70F62205
:10050F00E4900002F0A3F0D2A2F0900003E0FFC34A
:10051F009408502B30A215900002E0FE7480A807BB
:10052F00088002C313D8FC4E900002F0D2A1C2A1E2
:10053F007F0A7E001206C7900003E004F080CB9084
:04054F000002E0FFC7
:010553002285
:10064500E4900001F0C28012050F900001EFF0D296
:0D065500807F327E001206C7900001E0FF9A
:010662002275
:030000000206BB3A
:0C06BB00787FE4F6D8FD75810702058DFC
:10000300E709F608DFFA8046E709F208DFFA803EDF
:1000130088828C83E709F0A3DFFA8032E309F608CC
:10002300DFFA8078E309F208DFFA807088828C8334
:10003300E309F0A3DFFA806489828A83E0A3F608E8
:10004300DFFA805889828A83E0A3F208DFFA804CC2
:1000530080D280FA80C680D4806980F28033801099
:1000630080A680EA809A80A880DA80E280CA803302
:1000730089828A83ECFAE493A3C8C582C8CCC5837A
:10008300CCF0A3C8C582C8CCC583CCDFE9DEE7804A
:100093000D89828A83E493A3F608DFF9ECFAA9F0C9
:1000A300EDFB2289828A83ECFAE0A3C8C582C8CC1F
:1000B300C583CCF0A3C8C582C8CCC583CCDFEADE38
:1000C300E880DB89828A83E493A3F208DFF980CC9A
:1000D30088F0EF60010E4E60C388F0ED2402B40493
:1000E3000050B9F582EB2402B4040050AF2323453A
:0600F3008223900053730C
:1000F900BB010CE58229F582E5833AF583E02250BC
:1001090006E92582F8E622BBFE06E92582F8E22205
:0D011900E58229F582E5833AF583E493221F
:10012600F8BB010DE58229F582E5833AF583E8F00F
:10013600225006E92582C8F622BBFE05E92582C8BB
:02014600F222A3
:10014800E88FF0A4CC8BF0A42CFCE98EF0A42CFC56
:100158008AF0EDA42CFCEA8EF0A4CDA8F08BF0A4D4
:100168002DCC3825F0FDE98FF0A42CCD35F0FCEB33
:100178008EF0A4FEA9F0EB8FF0A4CFC5F02ECD39F8
:0F018800FEE43CFCEAA42DCE35F0FDE43CFC2265
:1001970075F008758200EF2FFFEE33FECD33CDCC1F
:1001A70033CCC58233C5829BED9AEC99E5829840A2
:1001B7000CF582EE9BFEED9AFDEC99FC0FD5F0D67F
:1001C700E4CEFBE4CDFAE4CCF9A88222B800C1B9A9
:1001D7000059BA002DEC8BF084CFCECDFCE5F0CBE7
:1001E700F97818EF2FFFEE33FEED33FDEC33FCEB20
:1001F70033FB10D703994004EB99FB0FD8E5E4F9DB
:10020700FA227818EF2FFFEE33FEED33FDEC33FCC7
:10021700C933C910D7059BE99A4007EC9BFCE99ABB
:10022700F90FD8E0E4C9FAE4CCFB2275F010EF2F00
:10023700FFEE33FEED33FDCC33CCC833C810D70700
:100247009BEC9AE899400AED9BFDEC9AFCE899F83B
:0E0257000FD5F0DAE4CDFBE4CCFAE4C8F922CE
:0C026500ECF0A3EDF0A3EEF0A3EFF0220C
:10027100A8828583F0D083D082120288120288126C
:100281000288120288E473E493A3C583C5F0C58391
:10029100C8C582C8F0A3C583C5F0C583C8C582C8D7
:0102A100223A
:10069200E4FFFE1202A2600C0FEF70010E09E97076
:0506A200F20A80EF22C6
:1002A200BB010689828A83E0225002E722BBFE025A
:0902B200E32289828A83E493228D
:00000001FF
