BL51 BANKED LINKER/LOCATER V6.22                                                        09/19/2014  23:20:50  PAGE 1


BL51 BANKED LINKER/LOCATER V6.22, INVOKED BY:
D:\KEIL\C51\BIN\BL51.EXE ..\OUTPUT\main.obj, ..\OUTPUT\myfun.obj, ..\OUTPUT\uart.obj, ..\OUTPUT\bsp.obj, ..\OUTPUT\delay
>> .obj TO ..\OUTPUT\test PRINT (..\LIST\test.m51) RAMSIZE (256)


MEMORY MODEL: LARGE


INPUT MODULES INCLUDED:
  ..\OUTPUT\main.obj (MAIN)
  ..\OUTPUT\myfun.obj (MYFUN)
  ..\OUTPUT\uart.obj (UART)
  ..\OUTPUT\bsp.obj (BSP)
  ..\OUTPUT\delay.obj (DELAY)
  D:\KEIL\C51\LIB\C51L.LIB (?C_STARTUP)
  D:\KEIL\C51\LIB\C51L.LIB (?C?COPY)
  D:\KEIL\C51\LIB\C51L.LIB (?C?CLDOPTR)
  D:\KEIL\C51\LIB\C51L.LIB (?C?CSTOPTR)
  D:\KEIL\C51\LIB\C51L.LIB (?C?LMUL)
  D:\KEIL\C51\LIB\C51L.LIB (?C?ULDIV)
  D:\KEIL\C51\LIB\C51L.LIB (?C?LSTXDATA)
  D:\KEIL\C51\LIB\C51L.LIB (?C?LSTKXDATA)
  D:\KEIL\C51\LIB\C51L.LIB (STRLEN)
  D:\KEIL\C51\LIB\C51L.LIB (?C?CLDPTR)


LINK MAP OF MODULE:  ..\OUTPUT\test (MAIN)


            TYPE    BASE      LENGTH    RELOCATION   SEGMENT NAME
            -----------------------------------------------------

            * * * * * * *   D A T A   M E M O R Y   * * * * * * *
            REG     0000H     0008H     ABSOLUTE     "REG BANK 0"
            IDATA   0008H     0001H     UNIT         ?STACK

            * * * * * * *  X D A T A   M E M O R Y  * * * * * * *
            XDATA   0000H     001DH     UNIT         ?XD?_U32TOSTR?MYFUN
            XDATA   001DH     0018H     UNIT         ?XD?_UART1_PUT_NUMBER?UART
            XDATA   0035H     000CH     UNIT         ?XD?_STRTOU32?MYFUN
            XDATA   0041H     0007H     UNIT         _XDATA_GROUP_
            XDATA   0048H     0004H     UNIT         ?XD?_UART1_PUT_INF?UART

            * * * * * * *   C O D E   M E M O R Y   * * * * * * *
            CODE    0000H     0003H     ABSOLUTE     
            CODE    0003H     02B8H     UNIT         ?C?LIB_CODE
            CODE    02BBH     0110H     UNIT         ?PR?_U32TOSTR?MYFUN
            CODE    03CBH     00D6H     UNIT         ?PR?_STRTOU32?MYFUN
            CODE    04A1H     006EH     UNIT         ?PR?_UART1_PUT_STRING?UART
            CODE    050FH     0039H     UNIT         ?PR?_UART1_PUT_NUMBER?UART
            CODE    0548H     002DH     UNIT         ?PR?MAIN?MAIN
            CODE    0575H     0023H     UNIT         ?PR?_UART1_PUT_INF?UART
            CODE    0598H     0022H     UNIT         ?PR?UART1_INIT?UART
            CODE    05BAH     0020H     UNIT         ?PR?_DELAY_MS?DELAY
            CODE    05DAH     001FH     UNIT         ?PR?ZNX_BSP_INIT?BSP
            CODE    05F9H     0016H     UNIT         ?CO?UART
            CODE    060FH     0015H     UNIT         ?PR?_STRLEN?STRLEN
            CODE    0624H     0014H     UNIT         ?CO?MYFUN
BL51 BANKED LINKER/LOCATER V6.22                                                      09/19/2014  23:20:50  PAGE 2


            CODE    0638H     0013H     UNIT         ?CO?MAIN
            CODE    064BH     000CH     UNIT         ?C_C51STARTUP
            CODE    0657H     000AH     UNIT         ?PR?_UART1_PUT_BYTE?UART
            CODE    0661H     000AH     UNIT         ?PR?UART1_PUT_ENTER?UART



OVERLAY MAP OF MODULE:   ..\OUTPUT\test (MAIN)


SEGMENT                              XDATA_GROUP
  +--> CALLED SEGMENT              START    LENGTH
--------------------------------------------------
?C_C51STARTUP                      -----    -----
  +--> ?PR?MAIN?MAIN

?PR?MAIN?MAIN                      0041H    0002H
  +--> ?PR?ZNX_BSP_INIT?BSP
  +--> ?PR?UART1_INIT?UART
  +--> ?CO?MAIN
  +--> ?PR?_UART1_PUT_STRING?UART
  +--> ?PR?_DELAY_MS?DELAY

?PR?_UART1_PUT_STRING?UART         0043H    0005H
  +--> ?PR?_STRLEN?STRLEN
  +--> ?PR?_UART1_PUT_BYTE?UART
  +--> ?PR?UART1_PUT_ENTER?UART

?PR?UART1_PUT_ENTER?UART           -----    -----
  +--> ?PR?_UART1_PUT_BYTE?UART



SYMBOL TABLE OF MODULE:  ..\OUTPUT\test (MAIN)

  VALUE           TYPE          NAME
  ----------------------------------

  -------         MODULE        MAIN
  C:0000H         SYMBOL        _ICE_DUMMY_
  D:0080H         PUBLIC        P0
  D:0090H         PUBLIC        P1
  D:00A0H         PUBLIC        P2
  D:00B0H         PUBLIC        P3
  D:00C0H         PUBLIC        P4
  D:00C8H         PUBLIC        P5
  D:00A8H         PUBLIC        IE
  D:00B8H         PUBLIC        IP
  D:00D8H         PUBLIC        CCON
  C:0548H         PUBLIC        main
  D:0098H         PUBLIC        SCON
  D:0088H         PUBLIC        TCON
  D:00F0H         PUBLIC        B
  D:00E0H         PUBLIC        ACC
  D:00D0H         PUBLIC        PSW
  -------         PROC          MAIN
  -------         DO            
BL51 BANKED LINKER/LOCATER V6.22                                                      09/19/2014  23:20:50  PAGE 3


  X:0041H         SYMBOL        i
  -------         ENDDO         
  C:0548H         LINE#         36
  C:0548H         LINE#         37
  C:0548H         LINE#         38
  C:054FH         LINE#         40
  C:0552H         LINE#         41
  C:0555H         LINE#         43
  C:0555H         LINE#         44
  C:0555H         LINE#         45
  C:055EH         LINE#         46
  C:0565H         LINE#         47
  C:056CH         LINE#         48
  C:0573H         LINE#         49
  -------         ENDPROC       MAIN
  -------         ENDMOD        MAIN

  -------         MODULE        MYFUN
  C:0000H         SYMBOL        _ICE_DUMMY_
  C:03CBH         PUBLIC        _strtou32
  C:02BBH         PUBLIC        _u32tostr
  C:0624H         SYMBOL        _?ix1000
  -------         PROC          _U32TOSTR
  X:0000H         SYMBOL        dat
  X:0004H         SYMBOL        str
  -------         DO            
  X:0007H         SYMBOL        temp
  X:001BH         SYMBOL        i
  X:001CH         SYMBOL        j
  -------         ENDDO         
  C:02BBH         LINE#         40
  C:02CCH         LINE#         41
  C:02CCH         LINE#         42
  C:02DFH         LINE#         43
  C:02E4H         LINE#         44
  C:02E6H         LINE#         46
  C:02FAH         LINE#         47
  C:02FAH         LINE#         48
  C:031DH         LINE#         49
  C:0323H         LINE#         50
  C:0340H         LINE#         51
  C:0342H         LINE#         52
  C:0348H         LINE#         53
  C:035BH         LINE#         54
  C:035BH         LINE#         55
  C:0389H         LINE#         56
  C:0391H         LINE#         57
  C:0397H         LINE#         58
  C:0397H         LINE#         59
  C:03B3H         LINE#         60
  C:03B3H         LINE#         61
  -------         ENDPROC       _U32TOSTR
  -------         PROC          _STRTOU32
  X:0035H         SYMBOL        str
  -------         DO            
  X:0038H         SYMBOL        temp
  X:003CH         SYMBOL        fact
BL51 BANKED LINKER/LOCATER V6.22                                                      09/19/2014  23:20:50  PAGE 4


  D:0007H         SYMBOL        len
  X:0040H         SYMBOL        i
  -------         ENDDO         
  C:03CBH         LINE#         71
  C:03D6H         LINE#         72
  C:03D6H         LINE#         73
  C:03DEH         LINE#         74
  C:03E8H         LINE#         75
  C:03EBH         LINE#         78
  C:03FCH         LINE#         79
  C:03FCH         LINE#         80
  C:046CH         LINE#         81
  C:0489H         LINE#         82
  C:0492H         LINE#         84
  C:04A0H         LINE#         85
  -------         ENDPROC       _STRTOU32
  -------         ENDMOD        MYFUN

  -------         MODULE        UART
  C:0000H         SYMBOL        _ICE_DUMMY_
  D:0080H         PUBLIC        P0
  D:0090H         PUBLIC        P1
  D:00A0H         PUBLIC        P2
  D:00B0H         PUBLIC        P3
  D:00C0H         PUBLIC        P4
  D:00C8H         PUBLIC        P5
  B:00A8H.7       PUBLIC        EA
  C:0598H         PUBLIC        uart1_init
  D:00A8H         PUBLIC        IE
  C:050FH         PUBLIC        _uart1_put_number
  D:00B8H         PUBLIC        IP
  B:0098H.1       PUBLIC        TI
  D:00D8H         PUBLIC        CCON
  C:04A1H         PUBLIC        _uart1_put_string
  C:0661H         PUBLIC        uart1_put_enter
  D:0099H         PUBLIC        SBUF
  D:0087H         PUBLIC        PCON
  D:0098H         PUBLIC        SCON
  D:0089H         PUBLIC        TMOD
  D:0088H         PUBLIC        TCON
  D:00F0H         PUBLIC        B
  D:008EH         PUBLIC        AUXR
  C:0657H         PUBLIC        _uart1_put_byte
  C:05FBH         SYMBOL        _?ix1000
  D:00E0H         PUBLIC        ACC
  C:0575H         PUBLIC        _uart1_put_inf
  B:00A8H.3       PUBLIC        ET1
  D:008DH         PUBLIC        TH1
  D:008BH         PUBLIC        TL1
  B:0088H.6       PUBLIC        TR1
  D:00A2H         PUBLIC        AUXR1
  D:00D0H         PUBLIC        PSW
  -------         PROC          UART1_INIT
  C:0598H         LINE#         46
  C:0598H         LINE#         47
  C:0598H         LINE#         48
  C:059BH         LINE#         50
BL51 BANKED LINKER/LOCATER V6.22                                                      09/19/2014  23:20:50  PAGE 5


  C:059EH         LINE#         51
  C:05A1H         LINE#         52
  C:05A4H         LINE#         53
  C:05A7H         LINE#         54
  C:05AAH         LINE#         55
  C:05ADH         LINE#         56
  C:05B0H         LINE#         57
  C:05B3H         LINE#         58
  C:05B5H         LINE#         59
  C:05B7H         LINE#         61
  C:05B9H         LINE#         62
  -------         ENDPROC       UART1_INIT
  -------         PROC          _UART1_PUT_BYTE
  D:0007H         SYMBOL        dat
  C:0657H         LINE#         72
  C:0657H         LINE#         73
  C:0657H         LINE#         74
  C:0659H         LINE#         75
  C:065BH         LINE#         76
  C:065EH         LINE#         77
  C:0660H         LINE#         78
  -------         ENDPROC       _UART1_PUT_BYTE
  -------         PROC          UART1_PUT_ENTER
  C:0661H         LINE#         88
  C:0661H         LINE#         89
  C:0661H         LINE#         90
  C:0666H         LINE#         91
  -------         ENDPROC       UART1_PUT_ENTER
  -------         PROC          _UART1_PUT_STRING
  X:0043H         SYMBOL        s
  -------         DO            
  X:0046H         SYMBOL        len
  D:0004H         SYMBOL        i
  -------         ENDDO         
  C:04A1H         LINE#         102
  C:04ACH         LINE#         103
  C:04ACH         LINE#         104
  C:04BDH         LINE#         107
  C:04D3H         LINE#         108
  C:04D3H         LINE#         109
  C:04E9H         LINE#         110
  C:04F0H         LINE#         111
  C:0506H         LINE#         112
  C:0506H         LINE#         113
  C:0509H         LINE#         114
  C:0509H         LINE#         116
  C:0509H         LINE#         117
  C:050EH         LINE#         118
  C:050EH         LINE#         119
  -------         ENDPROC       _UART1_PUT_STRING
  -------         PROC          _UART1_PUT_NUMBER
  X:001DH         SYMBOL        dat
  -------         DO            
  X:0021H         SYMBOL        temp
  -------         ENDDO         
  C:050FH         LINE#         129
  C:0515H         LINE#         130
BL51 BANKED LINKER/LOCATER V6.22                                                      09/19/2014  23:20:50  PAGE 6


  C:0515H         LINE#         131
  C:0528H         LINE#         133
  C:053FH         LINE#         134
  -------         ENDPROC       _UART1_PUT_NUMBER
  -------         PROC          _UART1_PUT_INF
  D:0001H         SYMBOL        inf
  X:0048H         SYMBOL        dat
  C:0575H         LINE#         146
  C:057BH         LINE#         147
  C:057BH         LINE#         148
  C:057EH         LINE#         149
  C:058FH         LINE#         150
  -------         ENDPROC       _UART1_PUT_INF
  -------         ENDMOD        UART

  -------         MODULE        BSP
  C:0000H         SYMBOL        _ICE_DUMMY_
  D:0080H         PUBLIC        P0
  D:0090H         PUBLIC        P1
  D:00A0H         PUBLIC        P2
  D:00B0H         PUBLIC        P3
  D:00C0H         PUBLIC        P4
  D:00C8H         PUBLIC        P5
  D:00A8H         PUBLIC        IE
  D:00B8H         PUBLIC        IP
  C:05DAH         PUBLIC        znx_bsp_init
  D:00D8H         PUBLIC        CCON
  B:00A0H.0       PUBLIC        P20
  B:00A0H.1       PUBLIC        P21
  D:0098H         PUBLIC        SCON
  B:00A0H.3       PUBLIC        P23
  D:0088H         PUBLIC        TCON
  B:00B0H.4       PUBLIC        P34
  B:00A0H.7       PUBLIC        P27
  D:00F0H         PUBLIC        B
  D:00E0H         PUBLIC        ACC
  D:00D0H         PUBLIC        PSW
  -------         PROC          ZNX_BSP_INIT
  -------         DO            
  D:0006H         SYMBOL        i
  -------         ENDDO         
  C:05DAH         LINE#         16
  C:05DAH         LINE#         17
  C:05DAH         LINE#         18
  C:05DDH         LINE#         20
  C:05DFH         LINE#         21
  C:05E1H         LINE#         22
  C:05E1H         LINE#         23
  C:05E1H         LINE#         24
  C:05E3H         LINE#         25
  C:05E5H         LINE#         26
  C:05F0H         LINE#         27
  C:05F2H         LINE#         28
  C:05F4H         LINE#         29
  C:05F6H         LINE#         30
  C:05F8H         LINE#         32
  -------         ENDPROC       ZNX_BSP_INIT
BL51 BANKED LINKER/LOCATER V6.22                                                      09/19/2014  23:20:50  PAGE 7


  -------         ENDMOD        BSP

  -------         MODULE        DELAY
  C:0000H         SYMBOL        _ICE_DUMMY_
  C:05BAH         PUBLIC        _delay_ms
  -------         PROC          _DELAY_MS
  D:0006H         SYMBOL        num
  -------         DO            
  D:0004H         SYMBOL        x
  D:0002H         SYMBOL        y
  -------         ENDDO         
  C:05BAH         LINE#         24
  C:05BAH         LINE#         25
  C:05BAH         LINE#         27
  C:05C4H         LINE#         28
  C:05D9H         LINE#         29
  -------         ENDPROC       _DELAY_MS
  -------         ENDMOD        DELAY

  -------         MODULE        ?C?COPY
  C:00D3H         PUBLIC        ?C?COPY
  -------         ENDMOD        ?C?COPY

  -------         MODULE        ?C?CLDOPTR
  C:00F9H         PUBLIC        ?C?CLDOPTR
  -------         ENDMOD        ?C?CLDOPTR

  -------         MODULE        ?C?CSTOPTR
  C:0126H         PUBLIC        ?C?CSTOPTR
  -------         ENDMOD        ?C?CSTOPTR

  -------         MODULE        ?C?LMUL
  C:0148H         PUBLIC        ?C?LMUL
  -------         ENDMOD        ?C?LMUL

  -------         MODULE        ?C?ULDIV
  C:01D3H         PUBLIC        ?C?ULDIV
  -------         ENDMOD        ?C?ULDIV

  -------         MODULE        ?C?LSTXDATA
  C:0265H         PUBLIC        ?C?LSTXDATA
  -------         ENDMOD        ?C?LSTXDATA

  -------         MODULE        ?C?LSTKXDATA
  C:0271H         PUBLIC        ?C?LSTKXDATA
  -------         ENDMOD        ?C?LSTKXDATA

  -------         MODULE        STRLEN
  C:060FH         PUBLIC        _STRLEN
  -------         ENDMOD        STRLEN

  -------         MODULE        ?C?CLDPTR
  C:02A2H         PUBLIC        ?C?CLDPTR
  -------         ENDMOD        ?C?CLDPTR

*** WARNING L16: UNCALLED SEGMENT, IGNORED FOR OVERLAY PROCESS
    SEGMENT: ?PR?_STRTOU32?MYFUN
BL51 BANKED LINKER/LOCATER V6.22                                                      09/19/2014  23:20:50  PAGE 8



*** WARNING L16: UNCALLED SEGMENT, IGNORED FOR OVERLAY PROCESS
    SEGMENT: ?PR?_UART1_PUT_INF?UART

Program Size: data=9.0 xdata=76 code=1643
LINK/LOCATE RUN COMPLETE.  2 WARNING(S),  0 ERROR(S)
