:10097900B4AEBFDA31B3F5CABCBBAFCDEAB3C92E49
:030989000D0A0054
:1007C500E4900035F0A3F01209051208C31202BB2C
:1007D5007BFF7A0979791207577FF47E011208E5C4
:1007E50074FFFFFE1208257FF47E011208E5E4FF81
:1007F500FE1208257FF47E011208E57455FFFE12EE
:1008050008257FF47E011208E57411FFFE12082504
:100815007FF47E011208E57499FFFE12082580B069
:100965000000000000000000000000000000000082
:04097500000000007E
:1004EE00900000120265900004EBF0A3EAF0A3E97D
:0104FE00F00D
:1004FF0078077C007D017BFF7A0979657E007F1488
:10050F001200D3E490001BF0A3F0900000E0FCA3D6
:10051F00E0FDA3E0FEA3E0FFEC4D4E4F6048E47B0F
:10052F000AFAF9F8900000A3A3A3E01201D3EB2479
:10053F0030FF90001BE02407F582E43400F583EFD1
:10054F00F090001BE004F0900000E0FCA3E0FDA39E
:10055F00E0FEA3E0FFE47B0AFAF9F81201D3900062
:10056F000012026580A490001BE0A3F0E490001B32
:10057F00F090001CE0FF90001BE0FEC39F5036EE92
:10058F00FDC3EF9DFFE49400FE74062FF582740007
:10059F003EF583E0FF900004E0FBA3E0FAA3E0F94F
:1005AF0090001BE0F582758300EF12012690001B6F
:1005BF00E004F080BC90001BE0701C900004E0FB96
:1005CF00A3E0FAA3E0F990001BE0FF04F08F82751F
:1005DF0083007430120126900004E0FBA3E0FAA31D
:0F05EF00E0F990001BE0F582758300E40201261D
:0B05FE00900049EBF0A3EAF0A3E9F045
:10060900A312027100000000900050120271000054
:100619000001120950900054EFF0900054E0D39477
:100629000050030206C590004CE0F8A3E0F9A3E0EE
:10063900FAA3E0FBC000C001C002C003900054E06F
:1006490024FFFFE434FFFE900049E0FBA3E0FAA396
:10065900E0F98F828E831200F9FF3395E0FEEF24D3
:10066900D0FFEE34FFFE3395E0FDFC900050E0F83A
:10067900A3E0F9A3E0FAA3E0FB120148D003D002FA
:10068900D001D000EB2FFFEA3EFEE93DFDE83CFC3E
:1006990090004C120265900050E0FCA3E0FDA3E03D
:1006A900FEA3E0FFE47B0AFAF9F812014890005032
:1006B900120265900054E014F002062390004CE009
:0A06C900FCA3E0FDA3E0FEA3E0FFA8
:0106D3002204
:100924000A000000000000000000000000000000B9
:06093400000000000000BD
:1008C30053A23F53877F759850438E40538EFE53F8
:1008D300890F438920758BB8758DB8C2ABD28ED280
:0208E300AF2242
:0A09C700C2998F993099FDC2992260
:0A09D1007F0D1209C77F0A0209C753
:0B075700900037EBF0A3EAF0A3E9F0FC
:10076200120950EF24FFFFEE34FF90003AF0A3EF9E
:10077200F0E4FDFCD390003BE09DEC6480F8900037
:100782003AE0648098401D900037E0FBA3E0FAA3B2
:10079200E0F98D828C831200F9FF1209C70DBD00AA
:1007A200010C80D0900037E0FBA3E0FAA3E0F98DC2
:1007B200828C831200F9FEB40A030209D1AF061239
:0207C20009C765
:0107C4002212
:0608670090001D12026565
:10086D0078217C007D017BFF7A0979267E007F143B
:10087D001200D390001DE0FCA3E0FDA3E0FEA3E079
:10088D00FF7B017A0079211204EE7B017A00792138
:03089D00020757F8
:1008A000900055120265120757900055E0FCA3E036
:1008B000FDA3E0FEA3E0FF1208677BFF7A0979241D
:0308C000020757D5
:10090500E4FFFEC2A3C2A0C2A1D2A10FBF00010E87
:0E091500EF64104E70F1C2A7D2A7C2B4D2B4E4
:0109230022B1
:1008E500E4FDFCC3ED9FEC9E5015E4FBFA0BBB0049
:0F08F500010ABA08F8BB6BF50DBD00010C80E4D9
:0109040022D0
:0F09AC008F80C2C2D2C2AF058F80C2C2D2C22218
:0A09DB00C2A5D2A41209ACD2A522D5
:10098C00AD07AC06C2A5D2A4ECFF1209ACD2A522CD
:10099C00AD07AC06C2A5C2A4ECFF1209ACD2A522CD
:04093A00E4FDFCFEDE
:10093E00AB05AA0412099CAE02AF0312098CE4FEA9
:02094E00FF2286
:1006D400900041EEF0A3EFF0AF05A3ECF0A3EFF030
:1006E400AF03A3EAF0A3EFF090003FE0FFA3E09094
:1006F4000047CFF0A3EFF0900041E0FCA3E0FD7FC2
:10070400207E0012093EA3E0FCA3E0FD7F217E00D1
:1007140012093E900041E0FCA3E0FD7F507E0012F0
:10072400093EA3E0FCA3E0FD7F527E0012093EA334
:10073400E0FCA3E0FD7F517E0012093EA3E0FCA390
:10074400E0FD7F537E0012093E7F227E0012099C49
:02075400E4FFC0
:010756002280
:1002BB00D2A5D2C57F647E001208E5C2C57F647EDD
:1002CB00001208E5D2C57F647E001208E57D007C34
:1002DB00017F017E0012093E7D007C077F027E00BC
:1002EB0012093E7D387C107F037E0012093E7F048D
:1002FB0012093A7D077C027F087E0012093E7F09B6
:10030B0012093AE4FDFC7F0AFE12093EE4FDFC7F74
:10031B000CFE12093EE4FDFC7F0DFE12093EE4FDCE
:10032B00FC7F0FFE12093EE4FDFC7F10FE12093E1E
:10033B007D077C007F117E0012093EE4FDFC7F12DD
:10034B00FE12093EE4FDFC7F13FE12093E7D907CFC
:10035B00127F107E0012093E7D277C027F117E00EA
:10036B0012093E7F017E001208E57D1D7C007F1285
:10037B007E0012093E7F017E001208E57D007C1590
:10038B007F137E0012093E7F017E001208E57D1867
:10039B007C007F297E0012093E7D0D7C007F2B7E29
:1003AB000012093E7D047C007F307E0012093E7DE9
:1003BB00077C037F317E0012093E7D027C007F3279
:1003CB007E0012093E7D067C027F357E0012093EBF
:1003DB007D087C047F367E0012093E7D077C057FFD
:1003EB00377E0012093E7D047C027F387E001209A5
:1003FB003E7407FDFC7F397E0012093E7D057C04AF
:10040B007F3C7E0012093E7D027C0F7F3D7E0012F9
:10041B00093EE4FDFC7F50FE12093E7DEF7C007F20
:10042B00517E0012093EE4FDFC7F52FE12093E7D17
:10043B003F7C017F537E0012093E7D007CA77F60CD
:10044B007E0012093E7D017C007F617E0012093E19
:10045B00E4FDFC7F6AFE12093EE4FDFC7F80FE1288
:10046B00093EE4FDFC7F81FE12093EE4FDFC7F8228
:10047B00FE12093EE4FDFC7F83FE12093EE4FDFC07
:10048B007F84FE12093EE4FDFC7F85FE12093E7D52
:10049B00107C007F907E0012093E7D007C067F92CF
:1004AB007E0012093E7D037C007F937E0012093E85
:1004BB007D107C017F957E0012093EE4FDFC7F9749
:1004CB00FE12093EE4FDFC7F98FE12093E7D337C53
:1004DB00017F077E0012093E7F017E001208E5E4D2
:0304EB00FEFF22EF
:08082500900037EEF0A3EFF0A4
:10082D0090003F7401F0A3743FF07BEF7A00E4FD7C
:10083D00FCFFFE1206D4E4F9E4FBFA900037E0FE6B
:10084D00A3E0FF12098C0BBB00010ABA01EDBB40FE
:09085D00EA09E9B4F0E2E4FEFF4F
:01086600226F
:030000000209BB37
:0C09BB00787FE4F6D8FD7581070207C5BF
:10000300E709F608DFFA8046E709F208DFFA803EDF
:1000130088828C83E709F0A3DFFA8032E309F608CC
:10002300DFFA8078E309F208DFFA807088828C8334
:10003300E309F0A3DFFA806489828A83E0A3F608E8
:10004300DFFA805889828A83E0A3F208DFFA804CC2
:1000530080D280FA80C680D4806980F28033801099
:1000630080A680EA809A80A880DA80E280CA803302
:1000730089828A83ECFAE493A3C8C582C8CCC5837A
:10008300CCF0A3C8C582C8CCC583CCDFE9DEE7804A
:100093000D89828A83E493A3F608DFF9ECFAA9F0C9
:1000A300EDFB2289828A83ECFAE0A3C8C582C8CC1F
:1000B300C583CCF0A3C8C582C8CCC583CCDFEADE38
:1000C300E880DB89828A83E493A3F208DFF980CC9A
:1000D30088F0EF60010E4E60C388F0ED2402B40493
:1000E3000050B9F582EB2402B4040050AF2323453A
:0600F3008223900053730C
:1000F900BB010CE58229F582E5833AF583E02250BC
:1001090006E92582F8E622BBFE06E92582F8E22205
:0D011900E58229F582E5833AF583E493221F
:10012600F8BB010DE58229F582E5833AF583E8F00F
:10013600225006E92582C8F622BBFE05E92582C8BB
:02014600F222A3
:10014800E88FF0A4CC8BF0A42CFCE98EF0A42CFC56
:100158008AF0EDA42CFCEA8EF0A4CDA8F08BF0A4D4
:100168002DCC3825F0FDE98FF0A42CCD35F0FCEB33
:100178008EF0A4FEA9F0EB8FF0A4CFC5F02ECD39F8
:0F018800FEE43CFCEAA42DCE35F0FDE43CFC2265
:1001970075F008758200EF2FFFEE33FECD33CDCC1F
:1001A70033CCC58233C5829BED9AEC99E5829840A2
:1001B7000CF582EE9BFEED9AFDEC99FC0FD5F0D67F
:1001C700E4CEFBE4CDFAE4CCF9A88222B800C1B9A9
:1001D7000059BA002DEC8BF084CFCECDFCE5F0CBE7
:1001E700F97818EF2FFFEE33FEED33FDEC33FCEB20
:1001F70033FB10D703994004EB99FB0FD8E5E4F9DB
:10020700FA227818EF2FFFEE33FEED33FDEC33FCC7
:10021700C933C910D7059BE99A4007EC9BFCE99ABB
:10022700F90FD8E0E4C9FAE4CCFB2275F010EF2F00
:10023700FFEE33FEED33FDCC33CCC833C810D70700
:100247009BEC9AE899400AED9BFDEC9AFCE899F83B
:0E0257000FD5F0DAE4CDFBE4CCFAE4C8F922CE
:0C026500ECF0A3EDF0A3EEF0A3EFF0220C
:10027100A8828583F0D083D082120288120288126C
:100281000288120288E473E493A3C583C5F0C58391
:10029100C8C582C8F0A3C583C5F0C583C8C582C8D7
:0102A100223A
:10095000E4FFFE1202A2600C0FEF70010E09E970B5
:05096000F20A80EF2205
:1002A200BB010689828A83E0225002E722BBFE025A
:0902B200E32289828A83E493228D
:00000001FF
