:10063800B4AEBFDA31B3F5CABCBBAFCDEAB3C92E8D
:030648000D0A0098
:10054800E4900041F0A3F01205DA1205987BFF7AD7
:100558000679381204A17FE87E031205BA7F017E6E
:0D056800001205BA7F017E001205BA80E086
:1006240000000000000000000000000000000000C6
:0406340000000000C2
:1002BB00900000120265900004EBF0A3EAF0A3E9B2
:0102CB00F042
:1002CC0078077C007D017BFF7A0679247E007F1401
:1002DC001200D3E490001BF0A3F0900000E0FCA30C
:1002EC00E0FDA3E0FEA3E0FFEC4D4E4F6048E47B45
:1002FC000AFAF9F8900000A3A3A3E01201D3EB24AF
:10030C0030FF90001BE02407F582E43400F583EF06
:10031C00F090001BE004F0900000E0FCA3E0FDA3D3
:10032C00E0FEA3E0FFE47B0AFAF9F81201D3900097
:10033C000012026580A490001BE0A3F0E490001B67
:10034C00F090001CE0FF90001BE0FEC39F5036EEC7
:10035C00FDC3EF9DFFE49400FE74062FF58274003C
:10036C003EF583E0FF900004E0FBA3E0FAA3E0F984
:10037C0090001BE0F582758300EF12012690001BA4
:10038C00E004F080BC90001BE0701C900004E0FBCB
:10039C00A3E0FAA3E0F990001BE0FF04F08F827554
:1003AC0083007430120126900004E0FBA3E0FAA352
:0F03BC00E0F990001BE0F582758300E402012652
:0B03CB00900035EBF0A3EAF0A3E9F08E
:1003D600A31202710000000090003C12027100009E
:1003E600000112060F900040EFF0900040E0D39419
:1003F600005003020492900038E0F8A3E0F9A3E06D
:10040600FAA3E0FBC000C001C002C003900040E0B8
:1004160024FFFFE434FFFE900035E0FBA3E0FAA3DF
:10042600E0F98F828E831200F9FF3395E0FEEF2408
:10043600D0FFEE34FFFE3395E0FDFC90003CE0F883
:10044600A3E0F9A3E0FAA3E0FB120148D003D0022F
:10045600D001D000EB2FFFEA3EFEE93DFDE83CFC73
:1004660090003812026590003CE0FCA3E0FDA3E09A
:10047600FEA3E0FFE47B0AFAF9F812014890003C7B
:10048600120265900040E014F00203F0900038E09C
:0A049600FCA3E0FDA3E0FEA3E0FFDD
:0104A0002239
:1005F9000A000000000000000000000000000000E8
:06060900000000000000EB
:1005980053A23F53877F759850438E40538EFE5326
:1005A800890F438920758BB8758DB8C2ABD28ED2AE
:0205B800AF2270
:0A065700C2998F993099FDC29922D3
:0A0661007F0D1206577F0A020657AC
:0B04A100900043EBF0A3EAF0A3E9F0A9
:1004AC0012060FEF24FFFFEE34FF900046F0A3EF8F
:1004BC00F0E4FDFCD3900047E09DEC6480F89000E4
:1004CC0046E0648098401D900043E0FBA3E0FAA353
:1004DC00E0F98D828C831200F9FF1206570DBD00D6
:1004EC00010C80D0900043E0FBA3E0FAA3E0F98D6F
:1004FC00828C831200F9FEB40A03020661AF061265
:02050C00065790
:01050E0022CA
:06050F0090001D120265C0
:1005150078217C007D017BFF7A0579FB7E007F14C5
:100525001200D390001DE0FCA3E0FDA3E0FEA3E0D4
:10053500FF7B017A0079211202BB7B017A007921C8
:030545000204A10C
:100575009000481202651204A1900048E0FCA3E037
:10058500FDA3E0FEA3E0FF12050F7BFF7A0579F9D5
:030595000204A1BC
:1005DA00E4FFFEC2A3C2A0C2A1D2A10FBF00010EB6
:0E05EA00EF64104E70F1C2A7D2A7C2B4D2B413
:0105F80022E0
:1005BA00E4FDFCC3ED9FEC9E5015E4FBFA0BBB0077
:0F05CA00010ABA08F8BB6BF50DBD00010C80E407
:0105D90022FF
:0300000002064BAA
:0C064B00787FE4F6D8FD758107020548B1
:10000300E709F608DFFA8046E709F208DFFA803EDF
:1000130088828C83E709F0A3DFFA8032E309F608CC
:10002300DFFA8078E309F208DFFA807088828C8334
:10003300E309F0A3DFFA806489828A83E0A3F608E8
:10004300DFFA805889828A83E0A3F208DFFA804CC2
:1000530080D280FA80C680D4806980F28033801099
:1000630080A680EA809A80A880DA80E280CA803302
:1000730089828A83ECFAE493A3C8C582C8CCC5837A
:10008300CCF0A3C8C582C8CCC583CCDFE9DEE7804A
:100093000D89828A83E493A3F608DFF9ECFAA9F0C9
:1000A300EDFB2289828A83ECFAE0A3C8C582C8CC1F
:1000B300C583CCF0A3C8C582C8CCC583CCDFEADE38
:1000C300E880DB89828A83E493A3F208DFF980CC9A
:1000D30088F0EF60010E4E60C388F0ED2402B40493
:1000E3000050B9F582EB2402B4040050AF2323453A
:0600F3008223900053730C
:1000F900BB010CE58229F582E5833AF583E02250BC
:1001090006E92582F8E622BBFE06E92582F8E22205
:0D011900E58229F582E5833AF583E493221F
:10012600F8BB010DE58229F582E5833AF583E8F00F
:10013600225006E92582C8F622BBFE05E92582C8BB
:02014600F222A3
:10014800E88FF0A4CC8BF0A42CFCE98EF0A42CFC56
:100158008AF0EDA42CFCEA8EF0A4CDA8F08BF0A4D4
:100168002DCC3825F0FDE98FF0A42CCD35F0FCEB33
:100178008EF0A4FEA9F0EB8FF0A4CFC5F02ECD39F8
:0F018800FEE43CFCEAA42DCE35F0FDE43CFC2265
:1001970075F008758200EF2FFFEE33FECD33CDCC1F
:1001A70033CCC58233C5829BED9AEC99E5829840A2
:1001B7000CF582EE9BFEED9AFDEC99FC0FD5F0D67F
:1001C700E4CEFBE4CDFAE4CCF9A88222B800C1B9A9
:1001D7000059BA002DEC8BF084CFCECDFCE5F0CBE7
:1001E700F97818EF2FFFEE33FEED33FDEC33FCEB20
:1001F70033FB10D703994004EB99FB0FD8E5E4F9DB
:10020700FA227818EF2FFFEE33FEED33FDEC33FCC7
:10021700C933C910D7059BE99A4007EC9BFCE99ABB
:10022700F90FD8E0E4C9FAE4CCFB2275F010EF2F00
:10023700FFEE33FEED33FDCC33CCC833C810D70700
:100247009BEC9AE899400AED9BFDEC9AFCE899F83B
:0E0257000FD5F0DAE4CDFBE4CCFAE4C8F922CE
:0C026500ECF0A3EDF0A3EEF0A3EFF0220C
:10027100A8828583F0D083D082120288120288126C
:100281000288120288E473E493A3C583C5F0C58391
:10029100C8C582C8F0A3C583C5F0C583C8C582C8D7
:0102A100223A
:10060F00E4FFFE1202A2600C0FEF70010E09E970F9
:05061F00F20A80EF2249
:1002A200BB010689828A83E0225002E722BBFE025A
:0902B200E32289828A83E493228D
:00000001FF
