:0F082400E490004AF0A3F01207C61202BB80FB5B
:1008100000000000000000000000000000000000D8
:0408200000000000D4
:1004D400900000120265900004EBF0A3EAF0A3E997
:0104E400F027
:1004E50078077C007D017BFF7A0879107E007F14F8
:1004F5001200D3E490001BF0A3F0900000E0FCA3F1
:10050500E0FDA3E0FEA3E0FFEC4D4E4F6048E47B29
:100515000AFAF9F8900000A3A3A3E01201D3EB2493
:1005250030FF90001BE02407F582E43400F583EFEB
:10053500F090001BE004F0900000E0FCA3E0FDA3B8
:10054500E0FEA3E0FFE47B0AFAF9F81201D390007C
:100555000012026580A490001BE0A3F0E490001B4C
:10056500F090001CE0FF90001BE0FEC39F5036EEAC
:10057500FDC3EF9DFFE49400FE74062FF582740021
:100585003EF583E0FF900004E0FBA3E0FAA3E0F969
:1005950090001BE0F582758300EF12012690001B89
:1005A500E004F080BC90001BE0701C900004E0FBB0
:1005B500A3E0FAA3E0F990001BE0FF04F08F827539
:1005C50083007430120126900004E0FBA3E0FAA337
:0F05D500E0F990001BE0F582758300E402012637
:0B05E400900035EBF0A3EAF0A3E9F073
:1005EF00A31202710000000090003C120271000083
:1005FF0000011207FB900040EFF0900040E0D39411
:10060F000050030206AB900038E0F8A3E0F9A3E036
:10061F00FAA3E0FBC000C001C002C003900040E09D
:10062F0024FFFFE434FFFE900035E0FBA3E0FAA3C4
:10063F00E0F98F828E831200F9FF3395E0FEEF24ED
:10064F00D0FFEE34FFFE3395E0FDFC90003CE0F868
:10065F00A3E0F9A3E0FAA3E0FB120148D003D00214
:10066F00D001D000EB2FFFEA3EFEE93DFDE83CFC58
:10067F0090003812026590003CE0FCA3E0FDA3E07F
:10068F00FEA3E0FFE47B0AFAF9F812014890003C60
:10069F00120265900040E014F0020609900038E065
:0A06AF00FCA3E0FDA3E0FEA3E0FFC2
:0106B900221E
:1007E5000A000000000000000000000000000000FA
:0607F500000000000000FE
:1007840053A23F53877F759850438E40538EFE5338
:10079400890F438920758BB8758DB8C2ABD28ED2C0
:0207A400AF2282
:0A084A00C2998F993099FDC29922DE
:0A0854007F0D12084A7F0A02084ACD
:0B06BA00900041EBF0A3EAF0A3E9F090
:1006C5001207FBEF24FFFFEE34FF900044F0A3EF89
:1006D500F0E4FDFCD3900045E09DEC6480F89000CB
:1006E50044E0648098401D900041E0FBA3E0FAA33C
:1006F500E0F98D828C831200F9FF12084A0DBD00C6
:10070500010C80D0900041E0FBA3E0FAA3E0F98D55
:10071500828C831200F9FEB40A03020854AF061254
:02072500084A80
:0107270022AF
:0607280090001D120265A5
:10072E0078217C007D017BFF7A0779E77E007F14BC
:10073E001200D390001DE0FCA3E0FDA3E0FEA3E0B9
:10074E00FF7B017A0079211204D47B017A00792192
:03075E000206BAD6
:100761009000461202651206BA900046E0FCA3E032
:10077100FDA3E0FEA3E0FF1207287BFF7A0779E5DE
:030781000206BAB3
:1007C600E4FFFEC2A3C2A0C2A1D2A10FBF00010EC8
:0E07D600EF64104E70F1C2A7D2A7C2B4D2B425
:0107E40022F2
:1007A600E4FDFCC3ED9FEC9E5015E4FBFA0BBB0089
:0F07B600010ABA08F8BB6BF50DBD00010C80E419
:0107C5002211
:0B083F00EF1FAC0670011E4C70F6228B
:1002BB00E47808F608F618F608F6C2807F107E2759
:1002CB0012083FD2807F107E2712083FC2817F1019
:1002DB007E2712083FD2817F107E2712083FC2A7CC
:1002EB007F107E2712083FD2A77F107E2712083F70
:1002FB00C2CC7F107E2712083FD2CC7F107E2712F4
:10030B00083FC2CD7F107E2712083FD2CD7F107ED3
:10031B002712083FC2967F107E2712083FD2967F86
:10032B00107E2712083FC2977F107E2712083FD2FC
:10033B0097C2827F107E2712083FD2827F107E27C2
:10034B0012083FC2837F107E2712083FD2837F1093
:10035B007E2712083FC2847F107E2712083FD2846B
:10036B007F107E2712083FC2B37F107E2712083FF3
:10037B00D2B37F107E2712083FC2857F107E2712D3
:10038B00083FD2857F107E2712083FC2B77F107EB1
:10039B002712083FD2B77F107E2712083FC2867FF5
:1003AB00107E2712083FD2867F107E2712083FC28D
:1003BB00B67F107E2712083FD2B67F107E27120819
:1003CB003FC2C67F107E2712083FD2C67F107E2702
:1003DB0012083FC2C77F107E2712083FD2C77F107B
:1003EB007E2712083FC2927F107E2712083FD292BF
:1003FB007F107E2712083FC2907F107E2712083F86
:10040B00D2907F107E2712083FC2917F107E271259
:10041B00083FD2917F107E2712083FC2A47F107E27
:10042B002712083FD2A47F107E2712083FC2C27F3B
:10043B00107E2712083FD2C27F107E2712083FC2C0
:10044B00A7C2C47F107E2712083FD2C47F107E271D
:10045B0012083FD2A7C2A57F107E2712083FD2A554
:10046B007F107E2712083FC2C57F107E2712083FE0
:10047B00D2C57F107E2712083FC2B27F107E271293
:10048B00083FD2B27F107E2712083FC2A67F107E94
:10049B002712083FD2A67F107E2712083FC2A77FE4
:1004AB00107E2712083FD2A77F107E2712083F78B5
:1004BB000906E618700106C37809E6940418E66489
:0804CB0080948050030202C579
:0104D3002206
:03000000020833C0
:0C083300787FE4F6D8FD758109020824E6
:10000300E709F608DFFA8046E709F208DFFA803EDF
:1000130088828C83E709F0A3DFFA8032E309F608CC
:10002300DFFA8078E309F208DFFA807088828C8334
:10003300E309F0A3DFFA806489828A83E0A3F608E8
:10004300DFFA805889828A83E0A3F208DFFA804CC2
:1000530080D280FA80C680D4806980F28033801099
:1000630080A680EA809A80A880DA80E280CA803302
:1000730089828A83ECFAE493A3C8C582C8CCC5837A
:10008300CCF0A3C8C582C8CCC583CCDFE9DEE7804A
:100093000D89828A83E493A3F608DFF9ECFAA9F0C9
:1000A300EDFB2289828A83ECFAE0A3C8C582C8CC1F
:1000B300C583CCF0A3C8C582C8CCC583CCDFEADE38
:1000C300E880DB89828A83E493A3F208DFF980CC9A
:1000D30088F0EF60010E4E60C388F0ED2402B40493
:1000E3000050B9F582EB2402B4040050AF2323453A
:0600F3008223900053730C
:1000F900BB010CE58229F582E5833AF583E02250BC
:1001090006E92582F8E622BBFE06E92582F8E22205
:0D011900E58229F582E5833AF583E493221F
:10012600F8BB010DE58229F582E5833AF583E8F00F
:10013600225006E92582C8F622BBFE05E92582C8BB
:02014600F222A3
:10014800E88FF0A4CC8BF0A42CFCE98EF0A42CFC56
:100158008AF0EDA42CFCEA8EF0A4CDA8F08BF0A4D4
:100168002DCC3825F0FDE98FF0A42CCD35F0FCEB33
:100178008EF0A4FEA9F0EB8FF0A4CFC5F02ECD39F8
:0F018800FEE43CFCEAA42DCE35F0FDE43CFC2265
:1001970075F008758200EF2FFFEE33FECD33CDCC1F
:1001A70033CCC58233C5829BED9AEC99E5829840A2
:1001B7000CF582EE9BFEED9AFDEC99FC0FD5F0D67F
:1001C700E4CEFBE4CDFAE4CCF9A88222B800C1B9A9
:1001D7000059BA002DEC8BF084CFCECDFCE5F0CBE7
:1001E700F97818EF2FFFEE33FEED33FDEC33FCEB20
:1001F70033FB10D703994004EB99FB0FD8E5E4F9DB
:10020700FA227818EF2FFFEE33FEED33FDEC33FCC7
:10021700C933C910D7059BE99A4007EC9BFCE99ABB
:10022700F90FD8E0E4C9FAE4CCFB2275F010EF2F00
:10023700FFEE33FEED33FDCC33CCC833C810D70700
:100247009BEC9AE899400AED9BFDEC9AFCE899F83B
:0E0257000FD5F0DAE4CDFBE4CCFAE4C8F922CE
:0C026500ECF0A3EDF0A3EEF0A3EFF0220C
:10027100A8828583F0D083D082120288120288126C
:100281000288120288E473E493A3C583C5F0C58391
:10029100C8C582C8F0A3C583C5F0C583C8C582C8D7
:0102A100223A
:1007FB00E4FFFE1202A2600C0FEF70010E09E9700C
:05080B00F20A80EF225B
:1002A200BB010689828A83E0225002E722BBFE025A
:0902B200E32289828A83E493228D
:00000001FF
