BL51 BANKED LINKER/LOCATER V6.22                                                        08/22/2014  20:59:16  PAGE 1


BL51 BANKED LINKER/LOCATER V6.22, INVOKED BY:
D:\KEIL\C51\BIN\BL51.EXE ..\OUTPUT\main.obj, ..\OUTPUT\myfun.obj, ..\OUTPUT\uart.obj, ..\OUTPUT\bsp.obj, ..\OUTPUT\delay
>> .obj, ..\OUTPUT\tft.obj TO ..\OUTPUT\test PRINT (..\LIST\test.m51) RAMSIZE (256)


MEMORY MODEL: LARGE


INPUT MODULES INCLUDED:
  ..\OUTPUT\main.obj (MAIN)
  ..\OUTPUT\myfun.obj (MYFUN)
  ..\OUTPUT\uart.obj (UART)
  ..\OUTPUT\bsp.obj (BSP)
  ..\OUTPUT\delay.obj (DELAY)
  ..\OUTPUT\tft.obj (TFT)
  D:\KEIL\C51\LIB\C51L.LIB (?C_STARTUP)
  D:\KEIL\C51\LIB\C51L.LIB (?C?COPY)
  D:\KEIL\C51\LIB\C51L.LIB (?C?CLDOPTR)
  D:\KEIL\C51\LIB\C51L.LIB (?C?CSTOPTR)
  D:\KEIL\C51\LIB\C51L.LIB (?C?LMUL)
  D:\KEIL\C51\LIB\C51L.LIB (?C?ULDIV)
  D:\KEIL\C51\LIB\C51L.LIB (?C?LSTXDATA)
  D:\KEIL\C51\LIB\C51L.LIB (?C?LSTKXDATA)
  D:\KEIL\C51\LIB\C51L.LIB (STRLEN)
  D:\KEIL\C51\LIB\C51L.LIB (?C?CLDPTR)


LINK MAP OF MODULE:  ..\OUTPUT\test (MAIN)


            TYPE    BASE      LENGTH    RELOCATION   SEGMENT NAME
            -----------------------------------------------------

            * * * * * * *   D A T A   M E M O R Y   * * * * * * *
            REG     0000H     0008H     ABSOLUTE     "REG BANK 0"
            IDATA   0008H     0001H     UNIT         ?STACK

            * * * * * * *  X D A T A   M E M O R Y  * * * * * * *
            XDATA   0000H     001DH     UNIT         ?XD?_U32TOSTR?MYFUN
            XDATA   001DH     0018H     UNIT         ?XD?_UART1_PUT_NUMBER?UART
            XDATA   0035H     0014H     UNIT         _XDATA_GROUP_
            XDATA   0049H     000CH     UNIT         ?XD?_STRTOU32?MYFUN
            XDATA   0055H     0004H     UNIT         ?XD?_UART1_PUT_INF?UART

            * * * * * * *   C O D E   M E M O R Y   * * * * * * *
            CODE    0000H     0003H     ABSOLUTE     
            CODE    0003H     02B8H     UNIT         ?C?LIB_CODE
            CODE    02BBH     0233H     UNIT         ?PR?TFT_INIT?TFT
            CODE    04EEH     0110H     UNIT         ?PR?_U32TOSTR?MYFUN
            CODE    05FEH     00D6H     UNIT         ?PR?_STRTOU32?MYFUN
            CODE    06D4H     0083H     UNIT         ?PR?_TFT_ADDR_SET?TFT
            CODE    0757H     006EH     UNIT         ?PR?_UART1_PUT_STRING?UART
            CODE    07C5H     0060H     UNIT         ?PR?MAIN?MAIN
            CODE    0825H     0042H     UNIT         ?PR?_TFT_CLEAR?TFT
            CODE    0867H     0039H     UNIT         ?PR?_UART1_PUT_NUMBER?UART
            CODE    08A0H     0023H     UNIT         ?PR?_UART1_PUT_INF?UART
            CODE    08C3H     0022H     UNIT         ?PR?UART1_INIT?UART
            CODE    08E5H     0020H     UNIT         ?PR?_DELAY_MS?DELAY
BL51 BANKED LINKER/LOCATER V6.22                                                      08/22/2014  20:59:16  PAGE 2


            CODE    0905H     001FH     UNIT         ?PR?ZNX_BSP_INIT?BSP
            CODE    0924H     0016H     UNIT         ?CO?UART
            CODE    093AH     0016H     UNIT         ?PR?_TFT_WRITE_REG_DATA?TFT
            CODE    0950H     0015H     UNIT         ?PR?_STRLEN?STRLEN
            CODE    0965H     0014H     UNIT         ?CO?MYFUN
            CODE    0979H     0013H     UNIT         ?CO?MAIN
            CODE    098CH     0010H     UNIT         ?PR?_TFT_WRITE_DATA?TFT
            CODE    099CH     0010H     UNIT         ?PR?_TFT_WRITE_REG?TFT
            CODE    09ACH     000FH     UNIT         ?PR?_TFT_WRITE_BUS?TFT
            CODE    09BBH     000CH     UNIT         ?C_C51STARTUP
            CODE    09C7H     000AH     UNIT         ?PR?_UART1_PUT_BYTE?UART
            CODE    09D1H     000AH     UNIT         ?PR?UART1_PUT_ENTER?UART
            CODE    09DBH     000AH     UNIT         ?PR?_TFT_WRITE_DATA8?TFT



OVERLAY MAP OF MODULE:   ..\OUTPUT\test (MAIN)


SEGMENT                               XDATA_GROUP
  +--> CALLED SEGMENT               START    LENGTH
---------------------------------------------------
?C_C51STARTUP                       -----    -----
  +--> ?PR?MAIN?MAIN

?PR?MAIN?MAIN                       0035H    0002H
  +--> ?PR?ZNX_BSP_INIT?BSP
  +--> ?PR?UART1_INIT?UART
  +--> ?PR?TFT_INIT?TFT
  +--> ?CO?MAIN
  +--> ?PR?_UART1_PUT_STRING?UART
  +--> ?PR?_DELAY_MS?DELAY
  +--> ?PR?_TFT_CLEAR?TFT

?PR?TFT_INIT?TFT                    -----    -----
  +--> ?PR?_DELAY_MS?DELAY
  +--> ?PR?_TFT_WRITE_REG_DATA?TFT

?PR?_TFT_WRITE_REG_DATA?TFT         -----    -----
  +--> ?PR?_TFT_WRITE_REG?TFT
  +--> ?PR?_TFT_WRITE_DATA?TFT

?PR?_TFT_WRITE_REG?TFT              -----    -----
  +--> ?PR?_TFT_WRITE_BUS?TFT

?PR?_TFT_WRITE_DATA?TFT             -----    -----
  +--> ?PR?_TFT_WRITE_BUS?TFT

?PR?_UART1_PUT_STRING?UART          0037H    0005H
  +--> ?PR?_STRLEN?STRLEN
  +--> ?PR?_UART1_PUT_BYTE?UART
  +--> ?PR?UART1_PUT_ENTER?UART

?PR?UART1_PUT_ENTER?UART            -----    -----
  +--> ?PR?_UART1_PUT_BYTE?UART

?PR?_TFT_CLEAR?TFT                  0037H    0002H
BL51 BANKED LINKER/LOCATER V6.22                                                      08/22/2014  20:59:16  PAGE 3


  +--> ?PR?_TFT_ADDR_SET?TFT
  +--> ?PR?_TFT_WRITE_DATA?TFT

?PR?_TFT_ADDR_SET?TFT               0039H    0010H
  +--> ?PR?_TFT_WRITE_REG_DATA?TFT
  +--> ?PR?_TFT_WRITE_REG?TFT



SYMBOL TABLE OF MODULE:  ..\OUTPUT\test (MAIN)

  VALUE           TYPE          NAME
  ----------------------------------

  -------         MODULE        MAIN
  C:0000H         SYMBOL        _ICE_DUMMY_
  D:0080H         PUBLIC        P0
  D:0090H         PUBLIC        P1
  D:00A0H         PUBLIC        P2
  D:00B0H         PUBLIC        P3
  D:00C0H         PUBLIC        P4
  D:00C8H         PUBLIC        P5
  D:00A8H         PUBLIC        IE
  D:00B8H         PUBLIC        IP
  D:00D8H         PUBLIC        CCON
  C:07C5H         PUBLIC        main
  D:0098H         PUBLIC        SCON
  D:0088H         PUBLIC        TCON
  D:00F0H         PUBLIC        B
  D:00E0H         PUBLIC        ACC
  D:00D0H         PUBLIC        PSW
  -------         PROC          MAIN
  -------         DO            
  X:0035H         SYMBOL        i
  -------         ENDDO         
  C:07C5H         LINE#         37
  C:07C5H         LINE#         38
  C:07C5H         LINE#         39
  C:07CCH         LINE#         41
  C:07CFH         LINE#         42
  C:07D2H         LINE#         43
  C:07D5H         LINE#         44
  C:07D5H         LINE#         45
  C:07D5H         LINE#         46
  C:07DEH         LINE#         47
  C:07E5H         LINE#         48
  C:07ECH         LINE#         49
  C:07F3H         LINE#         50
  C:07F9H         LINE#         51
  C:0800H         LINE#         52
  C:0807H         LINE#         53
  C:080EH         LINE#         54
  C:0815H         LINE#         55
  C:081CH         LINE#         56
  C:0823H         LINE#         57
  -------         ENDPROC       MAIN
  -------         ENDMOD        MAIN
BL51 BANKED LINKER/LOCATER V6.22                                                      08/22/2014  20:59:16  PAGE 4



  -------         MODULE        MYFUN
  C:0000H         SYMBOL        _ICE_DUMMY_
  C:05FEH         PUBLIC        _strtou32
  C:04EEH         PUBLIC        _u32tostr
  C:0965H         SYMBOL        _?ix1000
  -------         PROC          _U32TOSTR
  X:0000H         SYMBOL        dat
  X:0004H         SYMBOL        str
  -------         DO            
  X:0007H         SYMBOL        temp
  X:001BH         SYMBOL        i
  X:001CH         SYMBOL        j
  -------         ENDDO         
  C:04EEH         LINE#         24
  C:04FFH         LINE#         25
  C:04FFH         LINE#         26
  C:0512H         LINE#         27
  C:0517H         LINE#         28
  C:0519H         LINE#         30
  C:052DH         LINE#         31
  C:052DH         LINE#         32
  C:0550H         LINE#         33
  C:0556H         LINE#         34
  C:0573H         LINE#         35
  C:0575H         LINE#         36
  C:057BH         LINE#         37
  C:058EH         LINE#         38
  C:058EH         LINE#         39
  C:05BCH         LINE#         40
  C:05C4H         LINE#         41
  C:05CAH         LINE#         42
  C:05CAH         LINE#         43
  C:05E6H         LINE#         44
  C:05E6H         LINE#         45
  -------         ENDPROC       _U32TOSTR
  -------         PROC          _STRTOU32
  X:0049H         SYMBOL        str
  -------         DO            
  X:004CH         SYMBOL        temp
  X:0050H         SYMBOL        fact
  D:0007H         SYMBOL        len
  X:0054H         SYMBOL        i
  -------         ENDDO         
  C:05FEH         LINE#         55
  C:0609H         LINE#         56
  C:0609H         LINE#         57
  C:0611H         LINE#         58
  C:061BH         LINE#         59
  C:061EH         LINE#         62
  C:062FH         LINE#         63
  C:062FH         LINE#         64
  C:069FH         LINE#         65
  C:06BCH         LINE#         66
  C:06C5H         LINE#         68
  C:06D3H         LINE#         69
  -------         ENDPROC       _STRTOU32
BL51 BANKED LINKER/LOCATER V6.22                                                      08/22/2014  20:59:16  PAGE 5


  -------         ENDMOD        MYFUN

  -------         MODULE        UART
  C:0000H         SYMBOL        _ICE_DUMMY_
  D:0080H         PUBLIC        P0
  D:0090H         PUBLIC        P1
  D:00A0H         PUBLIC        P2
  D:00B0H         PUBLIC        P3
  D:00C0H         PUBLIC        P4
  D:00C8H         PUBLIC        P5
  B:00A8H.7       PUBLIC        EA
  C:08C3H         PUBLIC        uart1_init
  D:00A8H         PUBLIC        IE
  C:0867H         PUBLIC        _uart1_put_number
  D:00B8H         PUBLIC        IP
  B:0098H.1       PUBLIC        TI
  D:00D8H         PUBLIC        CCON
  C:0757H         PUBLIC        _uart1_put_string
  C:09D1H         PUBLIC        uart1_put_enter
  D:0099H         PUBLIC        SBUF
  D:0087H         PUBLIC        PCON
  D:0098H         PUBLIC        SCON
  D:0089H         PUBLIC        TMOD
  D:0088H         PUBLIC        TCON
  D:00F0H         PUBLIC        B
  D:008EH         PUBLIC        AUXR
  C:09C7H         PUBLIC        _uart1_put_byte
  C:0926H         SYMBOL        _?ix1000
  D:00E0H         PUBLIC        ACC
  C:08A0H         PUBLIC        _uart1_put_inf
  B:00A8H.3       PUBLIC        ET1
  D:008DH         PUBLIC        TH1
  D:008BH         PUBLIC        TL1
  B:0088H.6       PUBLIC        TR1
  D:00A2H         PUBLIC        AUXR1
  D:00D0H         PUBLIC        PSW
  -------         PROC          UART1_INIT
  C:08C3H         LINE#         30
  C:08C3H         LINE#         31
  C:08C3H         LINE#         32
  C:08C6H         LINE#         34
  C:08C9H         LINE#         35
  C:08CCH         LINE#         36
  C:08CFH         LINE#         37
  C:08D2H         LINE#         38
  C:08D5H         LINE#         39
  C:08D8H         LINE#         40
  C:08DBH         LINE#         41
  C:08DEH         LINE#         42
  C:08E0H         LINE#         43
  C:08E2H         LINE#         45
  C:08E4H         LINE#         46
  -------         ENDPROC       UART1_INIT
  -------         PROC          _UART1_PUT_BYTE
  D:0007H         SYMBOL        dat
  C:09C7H         LINE#         56
  C:09C7H         LINE#         57
BL51 BANKED LINKER/LOCATER V6.22                                                      08/22/2014  20:59:16  PAGE 6


  C:09C7H         LINE#         58
  C:09C9H         LINE#         59
  C:09CBH         LINE#         60
  C:09CEH         LINE#         61
  C:09D0H         LINE#         62
  -------         ENDPROC       _UART1_PUT_BYTE
  -------         PROC          UART1_PUT_ENTER
  C:09D1H         LINE#         72
  C:09D1H         LINE#         73
  C:09D1H         LINE#         74
  C:09D6H         LINE#         75
  -------         ENDPROC       UART1_PUT_ENTER
  -------         PROC          _UART1_PUT_STRING
  X:0037H         SYMBOL        s
  -------         DO            
  X:003AH         SYMBOL        len
  D:0004H         SYMBOL        i
  -------         ENDDO         
  C:0757H         LINE#         86
  C:0762H         LINE#         87
  C:0762H         LINE#         88
  C:0773H         LINE#         91
  C:0789H         LINE#         92
  C:0789H         LINE#         93
  C:079FH         LINE#         94
  C:07A6H         LINE#         95
  C:07BCH         LINE#         96
  C:07BCH         LINE#         97
  C:07BFH         LINE#         98
  C:07BFH         LINE#         100
  C:07BFH         LINE#         101
  C:07C4H         LINE#         102
  C:07C4H         LINE#         103
  -------         ENDPROC       _UART1_PUT_STRING
  -------         PROC          _UART1_PUT_NUMBER
  X:001DH         SYMBOL        dat
  -------         DO            
  X:0021H         SYMBOL        temp
  -------         ENDDO         
  C:0867H         LINE#         113
  C:086DH         LINE#         114
  C:086DH         LINE#         115
  C:0880H         LINE#         117
  C:0897H         LINE#         118
  -------         ENDPROC       _UART1_PUT_NUMBER
  -------         PROC          _UART1_PUT_INF
  D:0001H         SYMBOL        inf
  X:0055H         SYMBOL        dat
  C:08A0H         LINE#         130
  C:08A6H         LINE#         131
  C:08A6H         LINE#         132
  C:08A9H         LINE#         133
  C:08BAH         LINE#         134
  -------         ENDPROC       _UART1_PUT_INF
  -------         ENDMOD        UART

  -------         MODULE        BSP
BL51 BANKED LINKER/LOCATER V6.22                                                      08/22/2014  20:59:16  PAGE 7


  C:0000H         SYMBOL        _ICE_DUMMY_
  D:0080H         PUBLIC        P0
  D:0090H         PUBLIC        P1
  D:00A0H         PUBLIC        P2
  D:00B0H         PUBLIC        P3
  D:00C0H         PUBLIC        P4
  D:00C8H         PUBLIC        P5
  D:00A8H         PUBLIC        IE
  D:00B8H         PUBLIC        IP
  C:0905H         PUBLIC        znx_bsp_init
  D:00D8H         PUBLIC        CCON
  B:00A0H.0       PUBLIC        P20
  B:00A0H.1       PUBLIC        P21
  D:0098H         PUBLIC        SCON
  B:00A0H.3       PUBLIC        P23
  D:0088H         PUBLIC        TCON
  B:00B0H.4       PUBLIC        P34
  B:00A0H.7       PUBLIC        P27
  D:00F0H         PUBLIC        B
  D:00E0H         PUBLIC        ACC
  D:00D0H         PUBLIC        PSW
  -------         PROC          ZNX_BSP_INIT
  -------         DO            
  D:0006H         SYMBOL        i
  -------         ENDDO         
  C:0905H         LINE#         16
  C:0905H         LINE#         17
  C:0905H         LINE#         18
  C:0908H         LINE#         20
  C:090AH         LINE#         21
  C:090CH         LINE#         22
  C:090CH         LINE#         23
  C:090CH         LINE#         24
  C:090EH         LINE#         25
  C:0910H         LINE#         26
  C:091BH         LINE#         27
  C:091DH         LINE#         28
  C:091FH         LINE#         29
  C:0921H         LINE#         30
  C:0923H         LINE#         32
  -------         ENDPROC       ZNX_BSP_INIT
  -------         ENDMOD        BSP

  -------         MODULE        DELAY
  C:0000H         SYMBOL        _ICE_DUMMY_
  C:08E5H         PUBLIC        _delay_ms
  -------         PROC          _DELAY_MS
  D:0006H         SYMBOL        num
  -------         DO            
  D:0004H         SYMBOL        x
  D:0002H         SYMBOL        y
  -------         ENDDO         
  C:08E5H         LINE#         24
  C:08E5H         LINE#         25
  C:08E5H         LINE#         27
  C:08EFH         LINE#         28
  C:0904H         LINE#         29
BL51 BANKED LINKER/LOCATER V6.22                                                      08/22/2014  20:59:16  PAGE 8


  -------         ENDPROC       _DELAY_MS
  -------         ENDMOD        DELAY

  -------         MODULE        TFT
  C:0000H         SYMBOL        _ICE_DUMMY_
  C:099CH         PUBLIC        _tft_write_reg
  D:0080H         PUBLIC        P0
  D:0090H         PUBLIC        P1
  D:00A0H         PUBLIC        P2
  D:00B0H         PUBLIC        P3
  D:00C0H         PUBLIC        P4
  D:00C8H         PUBLIC        P5
  C:09ACH         PUBLIC        _tft_write_bus
  B:00C0H.5       PUBLIC        TFT_CON_RST
  D:00A8H         PUBLIC        IE
  C:09DBH         PUBLIC        _tft_write_data8
  D:00B8H         PUBLIC        IP
  D:00D8H         PUBLIC        CCON
  B:00A0H.5       PUBLIC        TFT_CON_CS
  D:0098H         PUBLIC        SCON
  D:0088H         PUBLIC        TCON
  B:00A0H.4       PUBLIC        TFT_CON_RS
  C:0825H         PUBLIC        _tft_clear
  B:00C0H.2       PUBLIC        TFT_CON_WR
  D:00F0H         PUBLIC        B
  D:00E0H         PUBLIC        ACC
  C:098CH         PUBLIC        _tft_write_data
  C:02BBH         PUBLIC        tft_init
  D:00D0H         PUBLIC        PSW
  C:093EH         PUBLIC        _tft_write_reg_data
  C:06D4H         PUBLIC        _tft_addr_set
  -------         PROC          _TFT_WRITE_BUS
  D:0007H         SYMBOL        Vh
  D:0005H         SYMBOL        Vl
  C:09ACH         LINE#         18
  C:09ACH         LINE#         19
  C:09ACH         LINE#         20
  C:09AEH         LINE#         21
  C:09B0H         LINE#         22
  C:09B2H         LINE#         23
  C:09B6H         LINE#         24
  C:09B8H         LINE#         25
  C:09BAH         LINE#         26
  -------         ENDPROC       _TFT_WRITE_BUS
  -------         PROC          _TFT_WRITE_DATA8
  D:0007H         SYMBOL        Vh
  D:0005H         SYMBOL        Vl
  C:09DBH         LINE#         28
  C:09DBH         LINE#         29
  C:09DBH         LINE#         30
  C:09DDH         LINE#         31
  C:09DFH         LINE#         32
  C:09E2H         LINE#         33
  C:09E4H         LINE#         34
  -------         ENDPROC       _TFT_WRITE_DATA8
  -------         PROC          _TFT_WRITE_DATA
  D:0004H         SYMBOL        data1
BL51 BANKED LINKER/LOCATER V6.22                                                      08/22/2014  20:59:16  PAGE 9


  C:098CH         LINE#         36
  C:0990H         LINE#         37
  C:0990H         LINE#         38
  C:0992H         LINE#         39
  C:0994H         LINE#         40
  C:0999H         LINE#         41
  C:099BH         LINE#         42
  -------         ENDPROC       _TFT_WRITE_DATA
  -------         PROC          _TFT_WRITE_REG
  D:0004H         SYMBOL        data1
  C:099CH         LINE#         44
  C:09A0H         LINE#         45
  C:09A0H         LINE#         46
  C:09A2H         LINE#         47
  C:09A4H         LINE#         48
  C:09A9H         LINE#         49
  C:09ABH         LINE#         50
  -------         ENDPROC       _TFT_WRITE_REG
  -------         PROC          L?0016
  -------         ENDPROC       L?0016
  -------         PROC          _TFT_WRITE_REG_DATA
  D:0006H         SYMBOL        reg
  D:0002H         SYMBOL        data1
  C:093EH         LINE#         52
  C:0942H         LINE#         53
  C:0942H         LINE#         54
  C:0945H         LINE#         55
  C:094CH         LINE#         56
  C:094FH         LINE#         57
  -------         ENDPROC       _TFT_WRITE_REG_DATA
  -------         PROC          _TFT_ADDR_SET
  D:0006H         SYMBOL        x1
  D:0004H         SYMBOL        y1
  D:0002H         SYMBOL        x2
  X:003FH         SYMBOL        y2
  -------         DO            
  X:0041H         SYMBOL        tempsx
  X:0043H         SYMBOL        tempsy
  X:0045H         SYMBOL        tempex
  X:0047H         SYMBOL        tempey
  -------         ENDDO         
  C:06D4H         LINE#         59
  C:06D4H         LINE#         60
  C:06D4H         LINE#         63
  C:06DCH         LINE#         64
  C:06E4H         LINE#         65
  C:06ECH         LINE#         66
  C:06FBH         LINE#         68
  C:070AH         LINE#         69
  C:0717H         LINE#         70
  C:0726H         LINE#         71
  C:0733H         LINE#         73
  C:0740H         LINE#         74
  C:074DH         LINE#         76
  C:0754H         LINE#         78
  C:0756H         LINE#         79
  -------         ENDPROC       _TFT_ADDR_SET
BL51 BANKED LINKER/LOCATER V6.22                                                      08/22/2014  20:59:16  PAGE 10


  -------         PROC          TFT_INIT
  C:02BBH         LINE#         81
  C:02BBH         LINE#         82
  C:02BBH         LINE#         83
  C:02BDH         LINE#         85
  C:02BFH         LINE#         86
  C:02C6H         LINE#         87
  C:02C8H         LINE#         88
  C:02CFH         LINE#         89
  C:02D1H         LINE#         91
  C:02D8H         LINE#         93
  C:02E3H         LINE#         94
  C:02EEH         LINE#         95
  C:02F9H         LINE#         96
  C:02FEH         LINE#         97
  C:0309H         LINE#         98
  C:030EH         LINE#         99
  C:0317H         LINE#         100
  C:0320H         LINE#         101
  C:0329H         LINE#         102
  C:0332H         LINE#         104
  C:033BH         LINE#         105
  C:0346H         LINE#         106
  C:034FH         LINE#         107
  C:0358H         LINE#         109
  C:0363H         LINE#         110
  C:036EH         LINE#         111
  C:0375H         LINE#         113
  C:0380H         LINE#         114
  C:0387H         LINE#         116
  C:0392H         LINE#         117
  C:0399H         LINE#         119
  C:03A4H         LINE#         120
  C:03AFH         LINE#         123
  C:03BAH         LINE#         124
  C:03C5H         LINE#         125
  C:03D0H         LINE#         126
  C:03DBH         LINE#         127
  C:03E6H         LINE#         128
  C:03F1H         LINE#         129
  C:03FCH         LINE#         130
  C:0407H         LINE#         131
  C:0412H         LINE#         132
  C:041DH         LINE#         134
  C:0426H         LINE#         135
  C:0431H         LINE#         136
  C:043AH         LINE#         137
  C:0445H         LINE#         138
  C:0450H         LINE#         139
  C:045BH         LINE#         140
  C:0464H         LINE#         142
  C:046DH         LINE#         143
  C:0476H         LINE#         144
  C:047FH         LINE#         145
  C:0488H         LINE#         146
  C:0491H         LINE#         147
  C:049AH         LINE#         149
BL51 BANKED LINKER/LOCATER V6.22                                                      08/22/2014  20:59:16  PAGE 11


  C:04A5H         LINE#         150
  C:04B0H         LINE#         151
  C:04BBH         LINE#         152
  C:04C6H         LINE#         153
  C:04CFH         LINE#         154
  C:04D8H         LINE#         155
  C:04E3H         LINE#         157
  C:04EAH         LINE#         159
  C:04EDH         LINE#         160
  -------         ENDPROC       TFT_INIT
  -------         PROC          _TFT_CLEAR
  X:0037H         SYMBOL        Color
  -------         DO            
  D:0001H         SYMBOL        i
  D:0002H         SYMBOL        j
  -------         ENDDO         
  C:0825H         LINE#         162
  C:082DH         LINE#         163
  C:082DH         LINE#         167
  C:0843H         LINE#         169
  C:0845H         LINE#         170
  C:0845H         LINE#         171
  C:0848H         LINE#         172
  C:0848H         LINE#         173
  C:0853H         LINE#         174
  C:085EH         LINE#         175
  C:0863H         LINE#         177
  C:0866H         LINE#         178
  -------         ENDPROC       _TFT_CLEAR
  -------         ENDMOD        TFT

  -------         MODULE        ?C?COPY
  C:00D3H         PUBLIC        ?C?COPY
  -------         ENDMOD        ?C?COPY

  -------         MODULE        ?C?CLDOPTR
  C:00F9H         PUBLIC        ?C?CLDOPTR
  -------         ENDMOD        ?C?CLDOPTR

  -------         MODULE        ?C?CSTOPTR
  C:0126H         PUBLIC        ?C?CSTOPTR
  -------         ENDMOD        ?C?CSTOPTR

  -------         MODULE        ?C?LMUL
  C:0148H         PUBLIC        ?C?LMUL
  -------         ENDMOD        ?C?LMUL

  -------         MODULE        ?C?ULDIV
  C:01D3H         PUBLIC        ?C?ULDIV
  -------         ENDMOD        ?C?ULDIV

  -------         MODULE        ?C?LSTXDATA
  C:0265H         PUBLIC        ?C?LSTXDATA
  -------         ENDMOD        ?C?LSTXDATA

  -------         MODULE        ?C?LSTKXDATA
  C:0271H         PUBLIC        ?C?LSTKXDATA
BL51 BANKED LINKER/LOCATER V6.22                                                      08/22/2014  20:59:16  PAGE 12


  -------         ENDMOD        ?C?LSTKXDATA

  -------         MODULE        STRLEN
  C:0950H         PUBLIC        _STRLEN
  -------         ENDMOD        STRLEN

  -------         MODULE        ?C?CLDPTR
  C:02A2H         PUBLIC        ?C?CLDPTR
  -------         ENDMOD        ?C?CLDPTR

*** WARNING L16: UNCALLED SEGMENT, IGNORED FOR OVERLAY PROCESS
    SEGMENT: ?PR?_STRTOU32?MYFUN

*** WARNING L16: UNCALLED SEGMENT, IGNORED FOR OVERLAY PROCESS
    SEGMENT: ?PR?_UART1_PUT_INF?UART

*** WARNING L16: UNCALLED SEGMENT, IGNORED FOR OVERLAY PROCESS
    SEGMENT: ?PR?_TFT_WRITE_DATA8?TFT

Program Size: data=9.0 xdata=89 code=2533
LINK/LOCATE RUN COMPLETE.  3 WARNING(S),  0 ERROR(S)
