:1007C200756172743120696E697420737563636533
:1007D20065640D0A006469676920696E6974207333
:1007E2007563636565642C2074657374207374612A
:0607F2007274210D0A00E3
:0508EF0042004E000074
:1007F80012089112084F7BFF7A0779C212063D1240
:1008080000037BFF7A0779D712063D90004EE47506
:10081800F0011201A8AFF0FE1205177F0A7E001240
:04082800087180E7EC
:1008DB00000000000000000000000000000000000D
:0408EB000000000009
:100331009000001202DB900004EBF0A3EAF0A3E9C5
:01034100F0CB
:1003420078077C007D017BFF7A0879DB7E007F14D1
:100352001200DEE490001BF0A3F0900000E0FCA38A
:10036200E0FDA3E0FEA3E0FFEC4D4E4F6048E47BCE
:100372000AFAF9F8900000A3A3A3E0120249EB24C1
:1003820030FF90001BE02407F582E43400F583EF90
:10039200F090001BE004F0900000E0FCA3E0FDA35D
:1003A200E0FEA3E0FFE47B0AFAF9F81202499000AA
:1003B200001202DB80A490001BE0A3F0E490001B7B
:1003C200F090001CE0FF90001BE0FEC39F5036EE51
:1003D200FDC3EF9DFFE49400FE74062FF5827400C6
:1003E2003EF583E0FF900004E0FBA3E0FAA3E0F90E
:1003F20090001BE0F582758300EF12013190001B23
:10040200E004F080BC90001BE0701C900004E0FB54
:10041200A3E0FAA3E0F990001BE0FF04F08F8275DD
:1004220083007430120131900004E0FBA3E0FAA3D0
:0F043200E0F990001BE0F582758300E4020131D0
:0B044100900035EBF0A3EAF0A3E9F017
:10044C00A31202E70000000090003C1202E700003B
:10045C0000011208C6900040EFF0900040E0D394E9
:10046C00005003020508900038E0F8A3E0F9A3E07F
:10047C00FAA3E0FBC000C001C002C003900040E042
:10048C0024FFFFE434FFFE900035E0FBA3E0FAA369
:10049C00E0F98F828E83120104FF3395E0FEEF2486
:1004AC00D0FFEE34FFFE3395E0FDFC90003CE0F80D
:1004BC00A3E0F9A3E0FAA3E0FB1201BED003D00243
:1004CC00D001D000EB2FFFEA3EFEE93DFDE83CFCFD
:1004DC009000381202DB90003CE0FCA3E0FDA3E0AE
:1004EC00FEA3E0FFE47B0AFAF9F81201BE90003C8F
:1004FC001202DB900040E014F0020466900038E039
:0A050C00FCA3E0FDA3E0FEA3E0FF66
:0105160022C2
:1008B0000A0000000000000000000000000000002E
:0608C00000000000000032
:10084F0053A23F53877F759850438E40538EFE536C
:10085F00890F438920758BB8758DB8C2ABD28ED2F4
:02086F00AF22B6
:0A091000C2998F993099FDC2992217
:0A091A007F0D1209107F0A02091078
:0B063D00900041EBF0A3EAF0A3E9F00D
:100648001208C6EF24FFFFEE34FF900044F0A3EF3A
:10065800F0E4FDFCD3900045E09DEC6480F8900048
:1006680044E0648098401D900041E0FBA3E0FAA3B9
:10067800E0F98D828C83120104FF1209100DBD0070
:10068800010C80D0900041E0FBA3E0FAA3E0F98DD3
:10069800828C83120104FEB40A0302091AAF0612FF
:0206A800091037
:0106AA00222D
:0607890090001D1202DBCE
:10078F0078217C007D017BFF7A0879B27E007F148F
:10079F001200DE90001DE0FCA3E0FDA3E0FEA3E04D
:1007AF00FF7B017A0079211203317B017A007921D5
:0307BF0002063DF2
:10082C009000461202DB12063D900046E0FCA3E06D
:10083C00FDA3E0FEA3E0FF1207897BFF7A0879B0E5
:03084C0002063D64
:10089100E4FFFEC2A3C2A0C2A1D2A10FBF00010EFC
:0E08A100EF64104E70F1C2A7D2A7C2B4D2B459
:0108AF002226
:10087100E4FDFCC3ED9FEC9E5015E4FBFA0BBB00BD
:0F088100010ABA08F8BB6BF50DBD00010C80E44D
:010890002245
:0A0924003F065B4F666D7D077F6F95
:0708F40044004A3F3F3F3F73
:10074F00EF14601414601B14601E24037022D2CCAB
:10075F00D2CDD296C2978018D2CCD2CDC296D29794
:10076F00800ED2CCC2CD8004C2CCD2CDD296D2973D
:0A077F00AF0512070CC2A7D2A72293
:03000300020900EF
:10051700900041EEF0A3EFF012092E900041E0FAAF
:10052700A3E0FB7C007D0AFFAE0212015374242D69
:10053700F58274093CF583E49390004AF07C007DD2
:100547000AAF03AE021201537C007D0A12015374F5
:10055700242DF58274093CF583E49390004BF090C9
:100567000041A3E07C007D64FFAE021201537C00D2
:100577007D0A12015374242DF58274093CF583E436
:100587009390004CF07C037DE8AF03AE0212015359
:100597007C007D0A12015374242DF58274093CF501
:0A05A70083E49390004DF00200067B
:10070C008F20A20792A3C2A1D2A1A20692A3C2A13A
:10071C00D2A1A20592A3C2A1D2A1A20492A3C2A16A
:10072C00D2A1A20392A3C2A1D2A1A20292A3C2A15E
:10073C00D2A1A20192A3C2A1D2A1A20092A3C2A152
:03074C00D2A12215
:0408FB004100500068
:10090000438901758CF5E4F58AD2A9D2AFD28C2245
:03000600D28C2277
:03092E00C28C2256
:03000B000206AB3F
:1006AB00C0E0C0F0C083C082C0D075D000C000C015
:1006BB0001C002C003C004C005C006C00712092E4A
:1006CB00758CF5758A00900050E0FF244AF582E4A2
:1006DB003400F583E0FD12074F900050E004F0E08A
:1006EB005403F0120006D007D006D005D004D00377
:1006FB00D002D001D000D0D0D082D083D0F0D0E0C7
:01070B0032BB
:030000000205B145
:0C05B100787FE4F6D8FD7581200205F883
:10000E00E709F608DFFA8046E709F208DFFA803ED4
:10001E0088828C83E709F0A3DFFA8032E309F608C1
:10002E00DFFA8078E309F208DFFA807088828C8329
:10003E00E309F0A3DFFA806489828A83E0A3F608DD
:10004E00DFFA805889828A83E0A3F208DFFA804CB7
:10005E0080D280FA80C680D4806980F2803380108E
:10006E0080A680EA809A80A880DA80E280CA8033F7
:10007E0089828A83ECFAE493A3C8C582C8CCC5836F
:10008E00CCF0A3C8C582C8CCC583CCDFE9DEE7803F
:10009E000D89828A83E493A3F608DFF9ECFAA9F0BE
:1000AE00EDFB2289828A83ECFAE0A3C8C582C8CC14
:1000BE00C583CCF0A3C8C582C8CCC583CCDFEADE2D
:1000CE00E880DB89828A83E493A3F208DFF980CC8F
:1000DE0088F0EF60010E4E60C388F0ED2402B40488
:1000EE000050B9F582EB2402B4040050AF2323452F
:0600FE00822390005E73F6
:10010400BB010CE58229F582E5833AF583E02250B0
:1001140006E92582F8E622BBFE06E92582F8E222FA
:0D012400E58229F582E5833AF583E4932214
:10013100F8BB010DE58229F582E5833AF583E8F004
:10014100225006E92582C8F622BBFE05E92582C8B0
:02015100F22298
:10015300BC000BBE0029EF8DF084FFADF022E4CC90
:10016300F875F008EF2FFFEE33FEEC33FCEE9DEC59
:10017300984005FCEE9DFE0FD5F0E9E4CEFD22ED9F
:10018300F8F5F0EE8420D21CFEADF075F008EF2FE9
:10019300FFED33FD4007985006D5F0F222C398FDDA
:0501A3000FD5F0EA2277
:1001A800A3F8E0C5F025F0F0E5821582700215830A
:0601B800E0C838F0E82267
:1001BE00E88FF0A4CC8BF0A42CFCE98EF0A42CFCE0
:1001CE008AF0EDA42CFCEA8EF0A4CDA8F08BF0A45E
:1001DE002DCC3825F0FDE98FF0A42CCD35F0FCEBBD
:1001EE008EF0A4FEA9F0EB8FF0A4CFC5F02ECD3982
:0F01FE00FEE43CFCEAA42DCE35F0FDE43CFC22EF
:10020D0075F008758200EF2FFFEE33FECD33CDCCA8
:10021D0033CCC58233C5829BED9AEC99E58298402B
:10022D000CF582EE9BFEED9AFDEC99FC0FD5F0D608
:10023D00E4CEFBE4CDFAE4CCF9A88222B800C1B932
:10024D000059BA002DEC8BF084CFCECDFCE5F0CB70
:10025D00F97818EF2FFFEE33FEED33FDEC33FCEBA9
:10026D0033FB10D703994004EB99FB0FD8E5E4F964
:10027D00FA227818EF2FFFEE33FEED33FDEC33FC51
:10028D00C933C910D7059BE99A4007EC9BFCE99A45
:10029D00F90FD8E0E4C9FAE4CCFB2275F010EF2F8A
:1002AD00FFEE33FEED33FDCC33CCC833C810D7078A
:1002BD009BEC9AE899400AED9BFDEC9AFCE899F8C5
:0E02CD000FD5F0DAE4CDFBE4CCFAE4C8F92258
:0C02DB00ECF0A3EDF0A3EEF0A3EFF02296
:1002E700A8828583F0D083D0821202FE1202FE120A
:1002F70002FE1202FEE473E493A3C583C5F0C5832F
:10030700C8C582C8F0A3C583C5F0C583C8C582C860
:0103170022C3
:1008C600E4FFFE120318600C0FEF70010E09E970C9
:0508D600F20A80EF2290
:1005BD000207F8E493A3F8E493A34003F68001F255
:1005CD0008DFF48029E493A3F85407240CC8C3333F
:1005DD00C4540F4420C8834004F456800146F6DF0E
:1005ED00E4800B01020408102040809008EFE47EA7
:1005FD00019360BCA3FF543F30E509541FFEE49303
:10060D00A360010ECF54C025E060A840B8E493A3C9
:10061D00FAE493A3F8E493A3C8C582C8CAC583CAF4
:10062D00F0A3C8C582C8CAC583CADFE9DEE780BEAC
:0108FF0000F8
:10031800BB010689828A83E0225002E722BBFE02E3
:09032800E32289828A83E4932216
:00000001FF
