:10089C00B4AEBFDA31B3F5CABCBBAFCDEAB3C92E27
:0308AC000D0A0032
:0508AF004200500000B2
:1007AC00E4900041F0A3F012083E1207FC7BFF7AA4
:1007BC0008799C1206277FE87E0312081E7F017EB3
:0D07CC000012081E7F017E0012081E80E052
:100888000000000000000000000000000000000060
:04089800000000005C
:10031B009000001202C5900004EBF0A3EAF0A3E9F1
:01032B00F0E1
:10032C0078077C007D017BFF7A0879887E007F143A
:10033C001200DEE490001BF0A3F0900000E0FCA3A0
:10034C00E0FDA3E0FEA3E0FFEC4D4E4F6048E47BE4
:10035C000AFAF9F8900000A3A3A3E0120233EB24ED
:10036C0030FF90001BE02407F582E43400F583EFA6
:10037C00F090001BE004F0900000E0FCA3E0FDA373
:10038C00E0FEA3E0FFE47B0AFAF9F81202339000D6
:10039C00001202C580A490001BE0A3F0E490001BA7
:1003AC00F090001CE0FF90001BE0FEC39F5036EE67
:1003BC00FDC3EF9DFFE49400FE74062FF5827400DC
:1003CC003EF583E0FF900004E0FBA3E0FAA3E0F924
:1003DC0090001BE0F582758300EF12013190001B39
:1003EC00E004F080BC90001BE0701C900004E0FB6B
:1003FC00A3E0FAA3E0F990001BE0FF04F08F8275F4
:10040C0083007430120131900004E0FBA3E0FAA3E6
:0F041C00E0F990001BE0F582758300E4020131E6
:0B042B00900035EBF0A3EAF0A3E9F02D
:10043600A31202D10000000090003C1202D100007D
:100446000001120873900040EFF0900040E0D39452
:100456000050030204F2900038E0F8A3E0F9A3E0AC
:10046600FAA3E0FBC000C001C002C003900040E058
:1004760024FFFFE434FFFE900035E0FBA3E0FAA37F
:10048600E0F98F828E83120104FF3395E0FEEF249C
:10049600D0FFEE34FFFE3395E0FDFC90003CE0F823
:1004A600A3E0F9A3E0FAA3E0FB1201A8D003D0026F
:1004B600D001D000EB2FFFEA3EFEE93DFDE83CFC13
:1004C6009000381202C590003CE0FCA3E0FDA3E0DA
:1004D600FEA3E0FFE47B0AFAF9F81201A890003CBB
:1004E6001202C5900040E014F0020450900038E07B
:0A04F600FCA3E0FDA3E0FEA3E0FF7D
:0105000022D8
:10085D000A00000000000000000000000000000081
:06086D0000000000000085
:1007FC0053A23F53877F759850438E40538EFE53C0
:10080C00890F438920758BB8758DB8C2ABD28ED247
:02081C00AF2209
:0A08D000C2998F993099FDC2992258
:0A08DA007F0D1208D07F0A0208D03B
:0B062700900043EBF0A3EAF0A3E9F021
:10063200120873EF24FFFFEE34FF900046F0A3EFA1
:10064200F0E4FDFCD3900047E09DEC6480F890005C
:1006520046E0648098401D900043E0FBA3E0FAA3CB
:10066200E0F98D828C83120104FF1208D00DBD00C7
:10067200010C80D0900043E0FBA3E0FAA3E0F98DE7
:10068200828C83120104FEB40A030208DAAF061256
:0206920008D08E
:010694002243
:0607730090001D1202C5FA
:1007790078217C007D017BFF7A08795F7E007F14F8
:100789001200DE90001DE0FCA3E0FDA3E0FEA3E063
:10079900FF7B017A00792112031B7B017A00792101
:0307A9000206271E
:1007D9009000481202C5120627900048E0FCA3E0E9
:1007E900FDA3E0FEA3E0FF1207737BFF7A08795DA2
:0307F900020627CE
:10083E00E4FFFEC2A3C2A0C2A1D2A10FBF00010E4F
:0E084E00EF64104E70F1C2A7D2A7C2B4D2B4AC
:01085C002279
:10081E00E4FDFCC3ED9FEC9E5015E4FBFA0BBB0010
:0F082E00010ABA08F8BB6BF50DBD00010C80E4A0
:01083D002298
:0A08E4003F065B4F666D7D077F6FD6
:0708B40044004C3F3F3F3FB1
:10073900EF14601414601B14601E24037022D2CCC1
:10074900D2CDD296C2978018D2CCD2CDC296D297AA
:10075900800ED2CCC2CD8004C2CCD2CDD296D29753
:0A076900AF051206F6C2A7D2A722C0
:030003000208C030
:10050100900052EEF0A3EFF01208EE900052E0FAE4
:10051100A3E0FB7C007D0AFFAE0212015374E42DBF
:10052100F58274083CF583E49390004CF07C007DE7
:100531000AAF03AE021201537C007D0A120153740B
:10054100E42DF58274083CF583E49390004DF0901E
:100551000052A3E07C007D64FFAE021201537C00D7
:100561007D0A12015374E42DF58274083CF583E48D
:100571009390004EF07C037DE8AF03AE021201536D
:100581007C007D0A12015374E42DF58274083CF558
:0A05910083E49390004FF00200068F
:1006F6008F20A20792A3C2A1D2A1A20692A3C2A151
:10070600D2A1A20592A3C2A1D2A1A20492A3C2A180
:10071600D2A1A20392A3C2A1D2A1A20292A3C2A174
:10072600D2A1A20192A3C2A1D2A1A20092A3C2A168
:03073600D2A1222B
:0408BB0041005400A4
:1008C000758901758CF5E4F58AD2A9D2AFD28C2254
:03000600D28C2277
:0308EE00C28C2297
:03000B0002069555
:10069500C0E0C0F0C083C082C0D075D000C000C02B
:1006A50001C002C003C004C005C006C0071208EEA1
:1006B500758CF5758A00900054E0FF244CF582E4B2
:1006C5003400F583E0FD120739900054E004F0E0B2
:1006D5005403F0120006D007D006D005D004D0038D
:1006E500D002D001D000D0D0D082D083D0F0D0E0DD
:0106F50032D2
:0300000002059B5B
:0C059B00787FE4F6D8FD7581200205E2AF
:10000E00E709F608DFFA8046E709F208DFFA803ED4
:10001E0088828C83E709F0A3DFFA8032E309F608C1
:10002E00DFFA8078E309F208DFFA807088828C8329
:10003E00E309F0A3DFFA806489828A83E0A3F608DD
:10004E00DFFA805889828A83E0A3F208DFFA804CB7
:10005E0080D280FA80C680D4806980F2803380108E
:10006E0080A680EA809A80A880DA80E280CA8033F7
:10007E0089828A83ECFAE493A3C8C582C8CCC5836F
:10008E00CCF0A3C8C582C8CCC583CCDFE9DEE7803F
:10009E000D89828A83E493A3F608DFF9ECFAA9F0BE
:1000AE00EDFB2289828A83ECFAE0A3C8C582C8CC14
:1000BE00C583CCF0A3C8C582C8CCC583CCDFEADE2D
:1000CE00E880DB89828A83E493A3F208DFF980CC8F
:1000DE0088F0EF60010E4E60C388F0ED2402B40488
:1000EE000050B9F582EB2402B4040050AF2323452F
:0600FE00822390005E73F6
:10010400BB010CE58229F582E5833AF583E02250B0
:1001140006E92582F8E622BBFE06E92582F8E222FA
:0D012400E58229F582E5833AF583E4932214
:10013100F8BB010DE58229F582E5833AF583E8F004
:10014100225006E92582C8F622BBFE05E92582C8B0
:02015100F22298
:10015300BC000BBE0029EF8DF084FFADF022E4CC90
:10016300F875F008EF2FFFEE33FEEC33FCEE9DEC59
:10017300984005FCEE9DFE0FD5F0E9E4CEFD22ED9F
:10018300F8F5F0EE8420D21CFEADF075F008EF2FE9
:10019300FFED33FD4007985006D5F0F222C398FDDA
:0501A3000FD5F0EA2277
:1001A800E88FF0A4CC8BF0A42CFCE98EF0A42CFCF6
:1001B8008AF0EDA42CFCEA8EF0A4CDA8F08BF0A474
:1001C8002DCC3825F0FDE98FF0A42CCD35F0FCEBD3
:1001D8008EF0A4FEA9F0EB8FF0A4CFC5F02ECD3998
:0F01E800FEE43CFCEAA42DCE35F0FDE43CFC2205
:1001F70075F008758200EF2FFFEE33FECD33CDCCBF
:1002070033CCC58233C5829BED9AEC99E582984041
:100217000CF582EE9BFEED9AFDEC99FC0FD5F0D61E
:10022700E4CEFBE4CDFAE4CCF9A88222B800C1B948
:100237000059BA002DEC8BF084CFCECDFCE5F0CB86
:10024700F97818EF2FFFEE33FEED33FDEC33FCEBBF
:1002570033FB10D703994004EB99FB0FD8E5E4F97A
:10026700FA227818EF2FFFEE33FEED33FDEC33FC67
:10027700C933C910D7059BE99A4007EC9BFCE99A5B
:10028700F90FD8E0E4C9FAE4CCFB2275F010EF2FA0
:10029700FFEE33FEED33FDCC33CCC833C810D707A0
:1002A7009BEC9AE899400AED9BFDEC9AFCE899F8DB
:0E02B7000FD5F0DAE4CDFBE4CCFAE4C8F9226E
:0C02C500ECF0A3EDF0A3EEF0A3EFF022AC
:1002D100A8828583F0D083D0821202E81202E8124C
:1002E10002E81202E8E473E493A3C583C5F0C58371
:1002F100C8C582C8F0A3C583C5F0C583C8C582C877
:0103010022D9
:10087300E4FFFE120302600C0FEF70010E09E97032
:05088300F20A80EF22E3
:1005A7000207ACE493A3F8E493A34003F68001F2B7
:1005B70008DFF48029E493A3F85407240CC8C33355
:1005C700C4540F4420C8834004F456800146F6DF24
:1005D700E4800B01020408102040809008AFE47EFD
:1005E700019360BCA3FF543F30E509541FFEE49319
:1005F700A360010ECF54C025E060A840B8E493A3E0
:10060700FAE493A3F8E493A3C8C582C8CAC583CA0A
:10061700F0A3C8C582C8CAC583CADFE9DEE780BEC2
:0108BF000038
:10030200BB010689828A83E0225002E722BBFE02F9
:09031200E32289828A83E493222C
:00000001FF
