:0806F20076616C75653A200089
:10050F00E4900000F0A3F0120674120632E490009B
:10051F0000F0A3F07BFF7A0679F2900000E0FEA3D3
:10052F00E0FFE4FCFD12060F900000E0FEA3E0FFE9
:10053F001205DE7F0A7E00120654900001E004F0DF
:10054F007006900000E004F0C3900000E0940440B7
:03055F00C380BA9C
:100693000A0000000000000000000000000000004D
:0606A30000000000000051
:1006320053A23F53877F759850438E40538EFE538B
:10064200890F438920758BB8758DB8C2ABD28ED213
:02065200AF22D5
:0A06DE00C2998F993099FDC299224C
:0A06E8007F0D1206DE7F0A0206DE17
:0B04A10090001EEBF0A3EAF0A3E9F0CE
:1004AC001206A9EF24FFFFEE34FF900021F0A3EF1A
:1004BC00F0E4FDFCD3900022E09DEC6480F8900009
:1004CC0021E0648098401D90001EE0FBA3E0FAA39D
:1004DC00E0F98D828C831200F9FF1206DE0DBD004F
:1004EC00010C80D090001EE0FBA3E0FAA3E0F98D94
:1004FC00828C831200F9FEB40A030206E8AF0612DE
:02050C0006DE09
:01050E0022CA
:0605A50090000612026541
:1005AB00780A7C007D017BFF7A0679957E007F14AB
:1005BB001200D3900006E0FCA3E0FDA3E0FEA3E055
:1005CB00FF7B017A00790A1202BB7B017A00790A60
:0305DB000204A176
:10060F009000021202651204A1900002E0FCA3E028
:10061F00FDA3E0FEA3E0FF1205A57BFF7A06799309
:03062F000204A121
:10067400E4FFFEC2A3C2A0C2A1D2A10FBF00010E1B
:0E068400EF64104E70F1C2A7D2A7C2B4D2B478
:010692002245
:10065400E4FDFCC3ED9FEC9E5015E4FBFA0BBB00DC
:0F066400010ABA08F8BB6BF50DBD00010C80E46C
:010673002264
:1006BE00000000000000000000000000000000002C
:0406CE000000000028
:1002BB0090001E120265900022EBF0A3EAF0A3E976
:0102CB00F042
:1002CC0078257C007D017BFF7A0679BE7E007F1449
:1002DC001200D3E4900039F0A3F090001EE0FCA3D0
:1002EC00E0FDA3E0FEA3E0FFEC4D4E4F6048E47B45
:1002FC000AFAF9F890001EA3A3A3E01201D3EB2491
:10030C0030FF900039E02425F582E43400F583EFCA
:10031C00F0900039E004F090001EE0FCA3E0FDA397
:10032C00E0FEA3E0FFE47B0AFAF9F81201D3900097
:10033C001E12026580A4900039E0A3F0E49000390D
:10034C00F090003AE0FF900039E0FEC39F5036EE8B
:10035C00FDC3EF9DFFE49400FE74242FF58274001E
:10036C003EF583E0FF900022E0FBA3E0FAA3E0F966
:10037C00900039E0F582758300EF12012690003968
:10038C00E004F080BC900039E0701C900022E0FB8F
:10039C00A3E0FAA3E0F9900039E0FF04F08F827536
:1003AC0083007430120126900022E0FBA3E0FAA334
:0F03BC00E0F9900039E0F582758300E402012634
:0B03CB0090003BEBF0A3EAF0A3E9F088
:1003D600A312027100000000900042120271000098
:1003E60000011206A9900046EFF0900046E0D39473
:1003F60000500302049290003EE0F8A3E0F9A3E067
:10040600FAA3E0FBC000C001C002C003900046E0B2
:1004160024FFFFE434FFFE90003BE0FBA3E0FAA3D9
:10042600E0F98F828E831200F9FF3395E0FEEF2408
:10043600D0FFEE34FFFE3395E0FDFC900042E0F87D
:10044600A3E0F9A3E0FAA3E0FB120148D003D0022F
:10045600D001D000EB2FFFEA3EFEE93DFDE83CFC73
:1004660090003E120265900042E0FCA3E0FDA3E08E
:10047600FEA3E0FFE47B0AFAF9F812014890004275
:10048600120265900046E014F00203F090003EE090
:0A049600FCA3E0FDA3E0FEA3E0FFDD
:0104A0002239
:1005DE00900002EEF0A3EFF0900002E0FEA3E078B0
:1005EE0002C333CE33CED8F9F0EE900002F0C281C2
:1005FE00E0FF120562900002A3E0FF120562D281B5
:01060E0022C9
:100562008F20A20792A3C2A1D2A1A20692A3C2A1E6
:10057200D2A1A20592A3C2A1D2A1A20492A3C2A116
:10058200D2A1A20392A3C2A1D2A1A20292A3C2A10A
:10059200D2A1A20192A3C2A1D2A1A20092A3C2A1FE
:0305A200D2A122C1
:030000000206D223
:0C06D200787FE4F6D8FD75812002050F4A
:10000300E709F608DFFA8046E709F208DFFA803EDF
:1000130088828C83E709F0A3DFFA8032E309F608CC
:10002300DFFA8078E309F208DFFA807088828C8334
:10003300E309F0A3DFFA806489828A83E0A3F608E8
:10004300DFFA805889828A83E0A3F208DFFA804CC2
:1000530080D280FA80C680D4806980F28033801099
:1000630080A680EA809A80A880DA80E280CA803302
:1000730089828A83ECFAE493A3C8C582C8CCC5837A
:10008300CCF0A3C8C582C8CCC583CCDFE9DEE7804A
:100093000D89828A83E493A3F608DFF9ECFAA9F0C9
:1000A300EDFB2289828A83ECFAE0A3C8C582C8CC1F
:1000B300C583CCF0A3C8C582C8CCC583CCDFEADE38
:1000C300E880DB89828A83E493A3F208DFF980CC9A
:1000D30088F0EF60010E4E60C388F0ED2402B40493
:1000E3000050B9F582EB2402B4040050AF2323453A
:0600F3008223900053730C
:1000F900BB010CE58229F582E5833AF583E02250BC
:1001090006E92582F8E622BBFE06E92582F8E22205
:0D011900E58229F582E5833AF583E493221F
:10012600F8BB010DE58229F582E5833AF583E8F00F
:10013600225006E92582C8F622BBFE05E92582C8BB
:02014600F222A3
:10014800E88FF0A4CC8BF0A42CFCE98EF0A42CFC56
:100158008AF0EDA42CFCEA8EF0A4CDA8F08BF0A4D4
:100168002DCC3825F0FDE98FF0A42CCD35F0FCEB33
:100178008EF0A4FEA9F0EB8FF0A4CFC5F02ECD39F8
:0F018800FEE43CFCEAA42DCE35F0FDE43CFC2265
:1001970075F008758200EF2FFFEE33FECD33CDCC1F
:1001A70033CCC58233C5829BED9AEC99E5829840A2
:1001B7000CF582EE9BFEED9AFDEC99FC0FD5F0D67F
:1001C700E4CEFBE4CDFAE4CCF9A88222B800C1B9A9
:1001D7000059BA002DEC8BF084CFCECDFCE5F0CBE7
:1001E700F97818EF2FFFEE33FEED33FDEC33FCEB20
:1001F70033FB10D703994004EB99FB0FD8E5E4F9DB
:10020700FA227818EF2FFFEE33FEED33FDEC33FCC7
:10021700C933C910D7059BE99A4007EC9BFCE99ABB
:10022700F90FD8E0E4C9FAE4CCFB2275F010EF2F00
:10023700FFEE33FEED33FDCC33CCC833C810D70700
:100247009BEC9AE899400AED9BFDEC9AFCE899F83B
:0E0257000FD5F0DAE4CDFBE4CCFAE4C8F922CE
:0C026500ECF0A3EDF0A3EEF0A3EFF0220C
:10027100A8828583F0D083D082120288120288126C
:100281000288120288E473E493A3C583C5F0C58391
:10029100C8C582C8F0A3C583C5F0C583C8C582C8D7
:0102A100223A
:1006A900E4FFFE1202A2600C0FEF70010E09E9705F
:0506B900F20A80EF22AF
:1002A200BB010689828A83E0225002E722BBFE025A
:0902B200E32289828A83E493228D
:00000001FF
